:020000040800F2
:10000000C83000200D0300082B44000815400008EC
:1000100029440008C11F00085D4D000800000000D1
:100020000000000000000000000000007502000851
:10003000D720000800000000B9020008854500082C
:1000400027030008270300082703000827030008E8
:1000500027030008270300082703000827030008D8
:100060002703000827030008270300086920000869
:1000700075200008812000088D20000899200008C4
:1000800027030008270300082703000827030008A8
:100090002703000827030008270300082703000898
:1000A0002703000827030008270300082703000888
:1000B00019460008254600087D4600082703000869
:1000C0002703000827030008270300082703000868
:1000D00027030008A14C000827030008094D000869
:1000E00027030008270300082703000800F002F890
:1000F00000F0B0F80AA090E8000C82448344AAF112
:100100000107DA4501D100F0A5F8AFF2090EBAE80F
:100110000F0013F0010F18BFFB1A43F0010318473B
:10012000C4710000E47100000A444FF0000C10F8A4
:10013000013B13F0070408BF10F8014B1D1108BF65
:1001400010F8015B641E05D010F8016B641E01F805
:10015000016BF9D113F0080F1EBF10F8014BAD1C55
:100160000C1B09D16D1E58BF01F801CBFAD505E073
:1001700014F8016B01F8016B6D1EF9D59142D6D3CD
:10018000704700000023002400250026103A28BFF5
:1001900078C1FBD8520728BF30C148BF0B607047F9
:1001A0006E2900F03B82702900F07D83662906F0FD
:1001B0002C87652906F02987672906F0268761299B
:1001C00006F0258703681B0A28BF41F080016929D2
:1001D00000F0E881642900F0E581752900F0E281F2
:1001E0006F2900F00A83782900F04983E92900F09B
:1001F000A582E42900F0A282F52900F09F82EF2970
:1002000000F00783F82900F048830368DB0928BF62
:1002100041F08001632901F07D80732901F0828023
:10022000E32901F08D80F32901F0928000207047CE
:100230001FB501F0DFF804000020002106F00AFCE1
:10024000401C60600020002106F0EEFBE0601FBD56
:1002500010B510BD01F0A0F81146FFF7E9FF04F05A
:10026000C0FD01F07DF903B4FFF7F2FF03BC01F01C
:10027000C5F90000224B19680868B0E8F00F80F358
:100280000988BFF36F8F4FF0000080F311884EF0A4
:100290000D0E70470000000006480068006880F3FB
:1002A000088862B661B6BFF34F8FBFF36F8F00DF70
:1002B00000BF00BF08ED00E0EFF30980BFF36F8FD0
:1002C0000F4B1A6820E9F00F106008B54FF050008E
:1002D00080F31188BFF34F8FBFF36F8F05F05CFD84
:1002E0004FF0000080F31188BDE8084019680868E5
:1002F000B0E8F00F80F30988BFF36F8F704700BF3D
:1003000008010020EFF3058070470000094880478E
:1003100009480047FEE7FEE7FEE7FEE7FEE7FEE7E7
:10032000FEE7FEE7FEE7FEE704480549054A064BFF
:100330007047000017460008ED000008C82A00209A
:10034000C8300020C82C0020C82C00201CB50C464A
:10035000064B7B4469460090204600F078F904463D
:100360000020694600F086F920461CBD1F030000EE
:1003700010B5431C02E010F8011B71B18107FAD1DE
:100380004FF0013202C88C1A8C4314EAC211F9D022
:10039000C01A0A0603D0C01E10BDC01A10BD0A0440
:1003A00001D0801E10BD0902FCD0401E10BD032AE2
:1003B00040F2308010F0030C00F0158011F8013B82
:1003C000BCF1020F624498BF11F801CB00F8013B69
:1003D00038BF11F8013BA2F1040298BF00F801CB2D
:1003E00038BF00F8013B11F0030300F02B83083AFB
:1003F000C0F0088051F8043B083A51F804CBA0E85B
:100400000810F5E7121D5CBF51F8043B40F8043BAF
:10041000AFF30080D20724BF11F8013B11F801CBE4
:1004200048BF11F8012B24BF00F8013B00F801CBB5
:1004300048BF00F8012B704702F0FF0343EA032294
:1004400042EA024200F002B84FF000020429C0F074
:10045000128010F0030C00F01B80CCF1040CBCF1F6
:10046000020F18BF00F8012BA8BF20F8022BA1EB48
:100470000C0100F00DB85FEAC17C24BF00F8012B2D
:1004800000F8012B48BF00F8012B70474FF0000225
:1004900000B5134694469646203922BFA0E80C507A
:1004A000A0E80C50B1F12001BFF4F7AF090728BF55
:1004B000A0E80C5048BF0CC05DF804EB890028BFD1
:1004C00040F8042B08BF704748BF20F8022B11F0FA
:1004D000804F18BF00F8012B704770477047704776
:1004E00070B5044685690068C10601D5302600E074
:1004F0002026C00707D070BDD4E9012130469047BF
:10050000206A401C20626D1EF6D570BD70B5044691
:1005100085690078C00707D170BDD4E9012120208A
:100520009047206A401C20626D1EF6D570BD096898
:100530004A0501D540B27047C905FCD500B27047E5
:1005400009684A0501D5C0B27047C905FCD580B21B
:10055000704770B50C460546012A05D028788006FC
:1005600000D5EA69002302E0012305E05B1C934209
:1005700002D2E05C0028F9D1A869E618C01AA86187
:10058000286A184428622846FFF7AAFF04E0D5E944
:10059000012114F8010B9047B442F8D32846FFF725
:1005A000B5FF70BD2DE9F04106460024106875299D
:1005B000314616A510D0FFF7BAFF002802DA4042F4
:1005C00013A507E031688A0701D512A502E04907A3
:1005D00004D511A5012401E0FFF7B2FF00210A2292
:1005E00006F1240709E0B0FBF2FCB0FBF2F302FBDA
:1005F0001C00303078541846491C0028F3D123469B
:100600002A463046BDE8F04100F093BA00000000F1
:100610002D0000002B00000020000000116802687F
:10062000006A530501D508700AE0D30501D508809A
:1006300006E0130603D5C217C1E9000200E0086016
:100640000120704701694A1C02610878704700B5B3
:100650008FB0CDE901310021059105497944CDE9FB
:1006600003101146684600F029F90FB000BD0000E4
:10067000E5FFFFFF0A6802F8010B0A6070470000FF
:100680002DE9FF5F15468A460446DFF8AC80F84442
:100690000027D8E900103E46CDE9001010E03AF8F6
:1006A00016106A4602A800F057FE411C07D02178B8
:1006B000890603D5E269391891420DD80744761CA2
:1006C0002078800602D5E069B84205DDAE42E6DB5F
:1006D0003AF816000028E2D1A069C01BA0612046AC
:1006E000FFF7FEFED8E90010CDE90010002017E06A
:1006F0003AF818106A4602A800F02EFEB0F1FF3F4B
:1007000081460BD000250DF1080B05E0D4E901214D
:100710001BF8050090476D1C4D45F7D308F101000B
:10072000B0428046E4DB206A384420622046FFF76E
:10073000EDFEBDE8FF9F00001A6B00002DE9F041BF
:100740008046D21D22F007020025D2E90002F529D9
:1007500015A614D0011E72F1000106DA0023D0EBB9
:10076000030063EB020211A608E0D8F800108B0723
:1007700001D50FA602E0490701D50EA601251146B5
:10078000002408F1240704E000F08EF930323A55D5
:10079000641C50EA0102F7D12B46324621464046FE
:1007A000BDE8F04100F0C5B9000000002D000000D8
:1007B0002B0000002000000030B4002100F12404D0
:1007C00008E002F00705D208303542EA4372DB0840
:1007D0006554491C52EA0305F3D10468002310A2B2
:1007E000250707D5A40600D421B1C46901230DA2B1
:1007F000641EC46130BC00F09CB910B504462146AB
:100800001068FFF79DFE02462046BDE81040002319
:10081000D2E7D21D22F00701D1E90023CCE7000086
:100820000000000030000000F0B40D46018809050A
:1008300002D5214C7C4402E01F4C7C440E34002144
:1008400000F1240608E002F00F071209E75D42EA12
:1008500003721B097754491C52EA0307F3D102784B
:100860000023120704D5702D06D009B102231134DC
:100870002246F0BC00F05DB901231034F8E770B5F2
:1008800004460D4621461068FFF75AFE02462946E7
:100890002046BDE870400023C6E7D21D22F00703C2
:1008A000D3E90023C0E70368126843F02003036024
:1008B0000823C3610023B7E77C6900002DE9F05FDE
:1008C000894604464FF0000ADFF874B1FB44C0F8D3
:1008D00020A02046E1688847002874D0252806D04B
:1008E000D4E901219047206A401C2062F1E70026EC
:1008F0005F462046E16888472028054607DB312D02
:1009000005D2781910F8200C08B10643F1E7B007BA
:1009100001D526F00406C4F81CA00027C4F818A0CE
:100920002A2D09D0284604F055FA38B304EB87087D
:10093000303DC8F8185019E059F8041B204604EB64
:1009400087029161E1688847012F054618D1E06967
:10095000002820DA26F020061DE0D8F8180000EB69
:10096000800005EB40003038C8F818002046E168E8
:100970008847054604F02EFA0028EED1012F0AD050
:100980002E2D08D12046E16888477F1C0546022F9E
:1009900046F02006C4DBA069002803DA404246F096
:1009A0000106A061F00701D026F010066C2D0BD0D7
:1009B000682D09D04C2D39D06A2D35D0742D35D005
:1009C0007A2D33D016E038E0E1682F46204688477C
:1009D000B842054609D16C2F26D04FF48060E168FB
:1009E000064320468847054604E06C2F1AD04FF492
:1009F000807006430DB3A5F14100192802D82035B7
:100A000046F400664A462946204626604E46FFF7D1
:100A1000C7FB80B101280BD0F61D26F0070000F1BE
:100A2000080956E74020E4E78020D8E70020D6E711
:100A300006F104094DE7284652E7206ABDE8F09F19
:100A40000C69000010B5203AC0F00B80B1E81850D6
:100A5000203AA0E81850B1E81850A0E81850BFF4A8
:100A6000F5AF5FEA027C24BFB1E81850A0E8185047
:100A700044BF18C918C0BDE810405FEA827C24BF9B
:100A800051F8043B40F8043B08BF7047D20728BF29
:100A900031F8023B48BF11F8012B28BF20F8023B78
:100AA00048BF00F8012B704730B5B0F10A024FEA99
:100AB000900E71F100034EEA817EB0EB0E0061EB07
:100AC00091014FEA101E4EEA017E10EB0E0041EB41
:100AD00011114FEA102E4EEA016E10EB0E0041EBA1
:100AE00011214FEA104E4EEA014E10EB0E0041EB81
:100AF0001141401841F100014FEAD00040EA417035
:100B00004FEAD10110EB80054FEA810444EA90746A
:100B100044EB01046D1944EB0404521BA3414FF054
:100B2000000348BF0A3200D530BD401C41F100012E
:100B300030BD2DE9F0470D4699469246044600F136
:100B400024080168880604D5E06921F010012160BD
:100B500000E00120A84201DD471B00E00027A16959
:100B60007A1902EB0900081AA0612078C00602D4A5
:100B70002046FFF7B5FC002608E0D4E901211AF869
:100B800006009047206A401C761C20624E45F4DB2C
:100B90002078C0060AD52046FFF7A2FC06E0D4E97B
:100BA000012130209047206A401C2062381EA7F1A6
:100BB0000107F4DC07E0D4E9012118F805009047AB
:100BC000206A401C2062281EA5F10105F3DC2046A6
:100BD000FFF79CFC2078000602D50220BDE8F087D4
:100BE0000120FBE770472DE9FF4F0C461E464FF0F2
:100BF000FF378BB0D2E90001DDF860800A908A46A9
:100C0000C1F30A5505B93D46002108464FF00000E2
:100C1000BAF1000F00F4400005DA00EB80004FF459
:100C2000400101EA50004FEA9059B9F1010F00DD8F
:100C3000B9460A9850EA4A000ED044F61050A5F280
:100C4000FF3545432F14B8F1000F1ED07542291E01
:100C50001EDDC9F100021CE0B8F1010F4FF00000E9
:100C600001D0302103E0F24305E02154401CB042A2
:100C7000FBDB30460022002121540B99C1F808808B
:100C8000C1E900200FB0BDE8F08FBD1B6D1CDEE791
:100C90004A4600DA694206A800F0F0FB06AB93E88A
:100CA000070003AB83E8070050460A9900F0ADFC4B
:100CB0008DE80700A0F500501F3800900398002D24
:100CC0000ADD42F21F014A460844002303A90390AB
:100CD000684600F016FF09E0A0F500504A461F38AC
:100CE000002303A90390684600F020FF8DE8070069
:100CF0000004000C03D04FF0FF30410800E0104624
:100D0000B8F1000F03D00022009215461EE0751EB8
:100D100005D4FFF7C9FE303262556D1EF9D5B346D2
:100D20000122084302D000227F1C04E020783028F2
:100D300001D100227F1E002A099784D01DE0112DC9
:100D400007DAFFF7B1FE303262556D1C50EA01023E
:100D5000F5D1084302D00098C8B10EE00021681E0A
:100D600005E0235C625C63542254401E491C8142AE
:100D7000F7DBAB46A81B401E0990002004F80B00CF
:100D80000B98099AC0F80880C0E9002B7AE7112671
:100D90004FF0000857E72DE9F04F88460446D21D72
:100DA00022F0070191B0D1E90001CDE90A0103F079
:100DB000EDFF02460B98C00F01D02D2007E0206800
:100DC000810701D52B2002E0202101EAC000032A7F
:100DD000099001D0072A05DB03464146204600F072
:100DE0000DFB0BE12078800601D5E06900E00620CC
:100DF000B8F1650F814606D0B8F1660F18D0B8F18A
:100E0000670F70D131E00020B9F1110F009001DBC4
:100E1000112301E009F101030AAA01A90CA8FFF7B7
:100E2000E2FEDDE90C70002609F10105834647E08A
:100E300001204B4600904FF000470AAA01A90CA8D8
:100E4000FFF7D1FEDDE90DB00C995D46002610B923
:100E500009F101000D18B9EB050003D4C0F1FF360C
:100E600009F10105A5EB09002BE0B9F1010F01DA49
:100E70004FF001090020B9F1110F0090484601DD43
:100E8000112300E003460AAA01A90CA8FFF7ABFE54
:100E9000DDE90C704D4600268346207800070AD411
:100EA000AB4500DA5D4601A8012D04DD411911F8BA
:100EB000011C302907D04F4502DA17F1040F04DA7C
:100EC000012082460FE06D1EEEE7002F02DCED1BD5
:100ED0003E4403E0781CA84200DD7D1CB81B00F1F5
:100EE000010A4FF000472078000703D4AA4501DB30
:100EF0004FF0FF3A0021B7F1004F0DF143088DF894
:100F0000431024D002202B23002F01DA7F422D230F
:100F10000A21021EA0F1010000DC5FB197FBF1FC89
:100F200097FBF1F201FB1C7C17460CF1300C08F822
:100F300001CDEEE7A8F1010003702188090501D574
:100F4000452100E06521A0F1010800F8011C099885
:100F50000FA9A1EB0807FF1D00B10120411901EB0A
:100F6000EA70A1693844081A401EA0612078C006C2
:100F700002D42046FFF7B4FA099828B1D4E9012138
:100F80009047206A401C20622078C00622D5204667
:100F9000FFF7A6FA1EE0002E04DBB34502DD01A830
:100FA000805D00E03020D4E901219047206A401C98
:100FB0002062761CAAF101005FEA000A0AD100F063
:100FC00019FAC0680168405CD4E901219047206AA1
:100FD000401C2062281EA5F10105DCDC07E0D4E9F5
:100FE000012118F8010B9047206A401C2062381E2E
:100FF000A7F10107F3DC2046FFF788FA032011B0C0
:1010000041E600002DE9F04F04460D46D21D22F0C6
:10101000070089B0D0E900974846394603F0B6FE8C
:101020000246F80F01D02D2307E02068810701D583
:101030002B2302E0202101EAC0038DF820300BB100
:10104000012000E00020032A824601D0072A04DBA9
:101050002946204600F0D2F93FE12078800601D4ED
:101060000D2500E0E569C7F30A560D2D49DA002188
:101070004FEA175B08464FF00000002F00F44000D5
:1010800007DA00EB80004FF4400100EBD07001EA7A
:1010900060008115012901DD4FF0FF3100224FEA88
:1010A000850CBCF1180F06D31346ACF118004FF0B5
:1010B0008052C24003E04FF4801323FA0CF30CF18A
:1010C0000C0CBCF1200F04D3ACF1200C09FA0CF08D
:1010D00001E007FA0CF000294FF0004801DD18B9D3
:1010E0000FE00ED140450CD319EB02095F4121B945
:1010F000404502D19F4329EA0209BBEB175F00D0AC
:10110000761C2088000502D57B48784402E07A48A6
:101110007844193808AA302302F80A30037C0AF10F
:101120000101002E0AF1020A53546A4602DC4FF014
:10113000300101E04FF031014FF001088DF800104F
:1011400002D0A6F2FF3603E059EA470100D06B4E09
:10115000002D02DC2178090704D54FF002082E216A
:101160008DF80110C44600210BE0C7F303433F0193
:10117000C35C491C6D1E02F80830052908F10108FE
:1011800001DA002DF1DC00210CE000EB1973491CA1
:101190001B786D1E082902F808304FEA091908F17A
:1011A000010801DA002DF0DC21688B0602D516E07B
:1011B000A8F10108E04505DD02EB080313F8013C46
:1011C000302BF5D0B8F1000F09DD02EB080313F85E
:1011D000013C2E2B03D1090701D4A8F10108002DF1
:1011E00005DD3E2102F808106D1E08F10108407C63
:1011F000002E02F8080008F1010804DA2D207642DA
:1012000002F8080002E02B2002F808000A214FF43F
:101210007A70864208F101080BDB96FBF0F330335D
:1012200002F8083096FBF0F308F1010800FB1366A2
:1012300001E0642E0CDB642096FBF0F3303302F8FF
:10124000083096FBF0F308F1010800FB136601E09B
:101250000A2E06DB96FBF1F0303002F8080008F1A8
:10126000010896FBF1F001FB1060303002F8080035
:10127000A16908F1010808EB050202EB0A00081A4F
:10128000A0612078C00602D42046FFF729F9216A20
:1012900008AE01EB0A00206204E0D4E9012116F84F
:1012A000010B9047BAF1010AF7D22078C00602D5A7
:1012B0002046FFF715F96E4609E016F8010B3E28A7
:1012C0000FD0D4E901219047206A401C2062B8F178
:1012D0000108F2D22046FFF719F909B00320BDE852
:1012E000F08F206A2844206203E0D4E901213020F5
:1012F00090476D1EEBD3F8E7F260000002FCFFFFA1
:1013000010B5436913B1AFF3008001E0FFF721F995
:10131000012010BD127800F124010A7000224A70E9
:101320000122EDE711684FF0FF32E9E710B543699C
:1013300013B1AFF3008001E0FFF7A2F9012010BD67
:10134000128800F1240182840022C2840122EDE788
:1013500011684FF0FF32E9E770B516460C460546B6
:1013600000F040F8036893F80101012806D0FF2C33
:101370000FD8185D68B101202C7070BDD3F807013B
:101380003246214603F2071303442846BDE8704065
:1013900018474FF0FF3070BD754600F0EBF8AE46D1
:1013A00005006946534620F00700854618B020B571
:1013B000FEF7BAFFBDE820404FF000064FF00007EF
:1013C0004FF000084FF0000B21F00701AC46ACE8ED
:1013D000C009ACE8C009ACE8C009ACE8C0098D465A
:1013E0007047000010B500F005F8001D10BD00BFEB
:1013F0006556000000487047882A00202DE9F0411A
:101400001F46044603260168072A01F4006004DB36
:1014100008B116A505E016A503E008B115A500E082
:1014200015A521F010002060A069C01EA0610FB1B9
:10143000401EA0612046FFF753F84FB1D4E90121C7
:1014400038469047206A401C2062C01C206206E09B
:10145000206AFAE7D4E9012115F8010B9047761EBE
:10146000F8D22046FFF752F8BDE8F0814E414E0019
:101470006E616E00494E4600696E66002DE9F047C8
:10148000814616468AB0354878440DC88DE80D006F
:1014900032487844801C03AC0DC884E80D0041F646
:1014A0009B300844372190FBF1F290FBF1F5A5F158
:1014B000800501FB12041B3C02D56442012000E0C0
:1014C0000020DFF898A080460027FA44AAF1BE0A5F
:1014D0000EE0E0070AD03246684607EB47010123D9
:1014E0000AEB810100F022FB8DE8070064107F1CED
:1014F000002CEED1194F7F44AE3F19E0E80715D01C
:1015000007EB04100DF1180A90E80E008AE80E00AF
:10151000C068F04201D1981908903246012306A90B
:1015200003A800F003FB03AB83E807006D10641C05
:10153000002DE3D14FF0010332466946B8F1000FA8
:1015400003A802D000F0DDFA01E000F0EFFAC9E9EB
:101550000001C9F808200AB0BDE8F087045E000069
:1015600010B50446AFF300802046BDE81040FEF7FA
:101570007ABE000000487047682A00204FF0013C06
:1015800050F8042B51F8043B9A4221D1A2EB0C03F2
:10159000934313EACC1317D150F8042B51F8043BB2
:1015A0009A4215D1A2EB0C03934313EACC130BD14F
:1015B00050F8042B51F8043B9A4209D1A2EB0C03DA
:1015C000934313EACC13DBD04FF00000704700BF09
:1015D000D01A01BAB1FA81F101F0180122FA01F032
:1015E000CB40C1F12001DBB2C0B2C01A2CFA01F32A
:1015F000D11A914311EAC311E6D17047014918206D
:10160000ABBEFEE72600020070475FEA400C08BF51
:1016100091F0000F4FEA8C234FEAC12243EA515167
:101620004FEA1C5018BF00F5F0404FEA300018BFD9
:1016300041F000415FEA6C5C00F02980BCF1FF3FA3
:1016400008BF40F080407047130C06BF12044FF0F3
:10165000100C4FF0000C130E04BF12020CF1080C1A
:10166000130F04BF12010CF1040C930F04BF92007E
:101670000CF1020CD30F04BF52000CF1010C114607
:101680004FF00002A0F11F00A0EB0C00704711F01A
:10169000004F08BF704731F000413FF4D5AF0B0C4D
:1016A00006BF09044FF0100C4FF0000C0B0E04BFE6
:1016B00009020CF1080C0B0F04BF09010CF1040C1A
:1016C0008B0F04BF89000CF1020CCB0F04BF490043
:1016D0000CF1010CCCF12003A0EB0C0022FA03F377
:1016E00002FA0CF241EA030100F10100704720F018
:1016F0007F4C80EA030023F07F47ACEB070303F540
:101700007C5300F0004003F1FF032DE980494FEACC
:10171000154B09B44FEA144325EA0B4E24EA03485B
:101720000FF2042606EB132749083E785FEA3202DF
:1017300003FB0667C7F5000707FB06F64FEA5437B9
:101740004FEAD64606F1020607FB066CCCF1005CB8
:101750004FEA1C472CEA074C07FB06F40CFB06F586
:1017600004EB15464FEA961634BF00204FF00040B8
:101770004FEAD13706FB07FC4FEA1C4C0CFB0BF77A
:10178000D21B03FB0CF761EB07010CFB0EF7B0EB70
:10179000074072EB17420CFB08F734BFA2EB07427D
:1017A000B2EB074261EB17414FEA0C444FEA910755
:1017B00006FB07FC4FEA1C4C0CFB0BF7B0EBC740D9
:1017C00072EB573203FB0CF734BFA2EBC742B2EB0C
:1017D000C74261EB57310CFB0EF7B0EBC70072EB61
:1017E00057720CFB08F734BFA2EBC702B2EBC7027B
:1017F00061EB5771039F4FEA816141EA921104EB5B
:10180000CC044FEAD1374FEA826206FB07FC42EA7A
:1018100090124FEA80604FEA1C4C0CFB0BF7D21B76
:1018200003FB0CF761EB07010CFB0EF7B0EB074075
:1018300072EB17420CFB08F734BFA2EB0742B2EB86
:10184000074261EB17414FEA8C554FEA910704EBD1
:101850009C2406FB07FC4FEA1C4C0CFB0BF7B0EB7F
:10186000C74072EB573203FB0CF734BFA2EBC74201
:10187000B2EBC74261EB57310CFB0EF7B0EBC70080
:1018800072EB57720CFB08F734BFA2EBC702B2EB46
:10189000C70261EB577115EB4C254FEA816141EAB4
:1018A00092114FEA82624FEAD13742EA901206FB68
:1018B00007FC44F100044FEA80604FEA1C4C0CFB2B
:1018C0000BF7D21B03FB0CF761EB07010CFB0EF7C8
:1018D000B0EB074072EB17420CFB08F734BFA2EBEA
:1018E0000742B2EB074261EB174115EB1C154FEABB
:1018F000813141EA92414FEA823242EA90424FEA14
:1019000080304FEA0C7644F1000448EA03434EEA83
:101910000B484FF0000EB2EB080C71EB030724BF2D
:10192000624639464EEB0E0E4FF0000B0018524146
:1019300049414BEB0B0BB2EB080C71EB03077BF14E
:10194000000B24BF624639464EEB0E0E4FF0000BE3
:101950000018524149414BEB0B0BB2EB080C71EBF9
:1019600003077BF1000B24BF624639464EEB0E0E97
:1019700051EA020718BF46F0010616EB0E7655F144
:10198000000254F1000103D5BDE88901BDE80088DB
:10199000BDE88901BDE80048B619524141EB01019B
:1019A000A3F10103704780807F7E7D7C7B7A79780C
:1019B000777676757473727171706F6E6E6D6C6C14
:1019C0006B6A6A69686867666665646463636261B6
:1019D0006160605F5F5E5E5D5D5C5C5B5B5A5A5937
:1019E00059585857575656555555545453535252A3
:1019F0005251515050504F4F4F4E4E4D4D4D4C4CFB
:101A00004C4B4B4B4A4A4A49494948484847474743
:101A10004746464645454544444444434343434280
:101A2000424242414141002B9C4630D477002BD0AA
:101A30001CB54FEA370703B44FF010004FF0100108
:101A4000BAF1000F06D0BCF1000FDCBF40F0080077
:101A500040F008014FF000000FBCBDE810400BF152
:101A6000010BBBF1010F08BF5FEA170722BF12F19C
:101A7000010211F101014FF0004143F1000300F0B8
:101A8000004043EA00007047F9D35708D0E746EA20
:101A9000064613F1400F4FEA16461FDD13F1200FE3
:101AA000DFBF16430A46002120335B42BED0C3F19C
:101AB000200746EA064602FA07F74FEA164646EAC4
:101AC0000706C3F1200722FA03F201FA07F721FA09
:101AD00003F14FF0000342EA0702A7E746EA0206D5
:101AE00046EA06464FEA164646EA0106BCBF46EA03
:101AF0000646360C4FF000034FF000024FF0000195
:101B000094E72DE9804C9A46934670B491E83800EA
:101B100007C831EA400C48BF34EA430C03D5FFF74D
:101B2000E6FDFFF780FFF0BCBDE8008C2DE9804C9E
:101B30009A46934670B491E8380007C810F0804F79
:101B400008BF13F0804F03D100F005F8FFF76BFFDB
:101B5000F0BCBDE8008C20F07F4780EA030023F052
:101B60007F4C07EB0C03A3F57C5300F00040A3F17E
:101B7000FE0392F0000F00F0B38095F0000F00F02C
:101B800077802DE901494FEA11404FEA144621EAD6
:101B9000004800FB06FC24EA064708FB06F607FBA4
:101BA00008F800FB07F718EB06484CEB164C4FEA19
:101BB000124B18EB07484FEA15464CEB174022EA48
:101BC0000B4E0BFB06FC25EA06470EFB06F607FB51
:101BD0000EFE0BFB07F71EEB064E4CEB164C4FF0C0
:101BE00000061EEB074E4CEB174B18EB0B0840F1B1
:101BF000000018EB0E0B58EB000840F100008F1AA4
:101C00004FF000013CBFC943661B14BFB5EB040C89
:101C100000213CBFC943F61B4FEA17444EEA8E0E23
:101C200027EA04454FEA1C4704FB07622CEA074CED
:101C300005FB07F70CFB05F604FB0CFC16EB07464F
:101C400042EB174216EB0C4642EB1C421BEB06061E
:101C500058EB0202414146EA9E0601D5BDE80189E2
:101C6000B619524141EB0101A3F10103BDE801891D
:101C70004FEA14454FEA114724EA054621EA074C8A
:101C800005FB07F406FB07F70CFB06F105FB0CFC54
:101C900011EB074144EB17444FEA124711EB0C419B
:101CA00044EB1C4422EA074C05FB07F206FB07F74E
:101CB0000CFB06F605FB0CFC16EB074642EB174245
:101CC00016EB0C4642EB1C456A1854F1000148BF64
:101CD0007047B619524141EB0101A3F1010370476E
:101CE00095F0000F37D04FEA11424FEA144721EA2E
:101CF000024624EA074C02FB07F106FB07F70CFB40
:101D000006F402FB0CFC14EB074441EB17414FEACD
:101D1000154714EB0C4441EB1C4125EA074C02FB30
:101D200007F506FB07F70CFB06F602FB0CFC16EBAF
:101D3000074645EB174516EB0C4645EB1C421219BE
:101D400051F1000148BF7047B619524141EB010102
:101D5000A3F1010370474FEA14454FEA114724EA03
:101D6000054621EA074C05FB07F106FB07F70CFBCC
:101D700006F24FF0000605FB0CFC12EB074241EBAC
:101D8000174112EB0C4251EB1C4148BF70479218AF
:101D900041EB0101A3F101037047000010B5006899
:101DA000094988420FD10948008804F0D9FF00F0A2
:101DB0009FF90749C1F8A40F064801210068BDE852
:101DC000104003F06FB810BD08000240D80000209A
:101DD000CC0400200C00002010B5074800F0B2F938
:101DE0000A2000F079FD02220449034800F06EFB4E
:101DF00004490348886210BD88010020D8000020F3
:101E00009D1D0008B80100202DE9F041174C2088E5
:101E100004F0A6FF164D294604F0B6FF6FF00B063E
:101E2000314605F028F9134905F07AF8124F394682
:101E300004F0AAFF616904F0A7FFE16904F066FEFF
:101E4000E060608804F08CFF294604F09DFF314675
:101E500005F011F9394604F097FF216904F094FF69
:101E6000A16904F053FEA060BDE8F081D800002015
:101E700000404E450040CE440000A04170B50446ED
:101E800000688168C943C90717D1816821F0010141
:101E9000816000F029FE05460AE000BF00F024FE44
:101EA000401B022804D920688068C043C00706D0C0
:101EB00020688068C043C007F0D0002070BDA06AD1
:101EC00040F01000A062E06A40F00100E0620120F2
:101ED00070BD10B50146406A826A12F0500F05D0FD
:101EE000006A026BBDE8104008461047816A41F461
:101EF0000071816201688968C1F3424107290CD1F0
:101F0000017B51B9816A21F480718162816AC904BF
:101F100003D4816A41F00101816200F0FDF910BD36
:101F200010B5406A816A41F040018162C16A41F0A6
:101F30000401C16200F0F2F910BD10B5406A00F072
:101F4000ECF910BDF8B500260446009600688168DB
:101F5000C943C9072DD0816841F00101816016484D
:101F600016490068B0FBF1F000E0401E0090002828
:101F7000FBD100F0B9FD054616E000BF00F0B4FD4E
:101F8000401B022810D920688068C043C0070BD0CE
:101F9000A06A40F01000A062E06A40F00100E06238
:101FA00084F824600120F8BD20688068C043C00721
:101FB000E4D10020F8BD00000401002040420F00E1
:101FC000FEE7000010B500210C4801F00BFD0021D8
:101FD0000A4801F00DFA0421084801F003FD04212C
:101FE000064801F005FA05494FF42F7009680864A6
:101FF000BDE810400C21014801F0F4BCFC010020B8
:1020000010B500210A4801F03BFD0021084801F00D
:102010003BFA0421064801F033FD0421044801F095
:1020200033FABDE810400C21014801F029BD000041
:10203000FC01002070B50B4B0022C2EBC204002152
:1020400003EB4404455C665CB54205D0521CD2B239
:102050000C2AF2D3002070BD491CC9B20E29F1D35D
:10206000012070BD29000020014800F025BB0000C0
:10207000B8010020014800F01FBB0000EC03002065
:10208000014800F019BB000030040020014800F0B6
:1020900013BB0000A803002010B502F011FEBDE83C
:1020A0001040014800F008BB6403002030B590F8F0
:1020B00040500124AC40C56B6C60046863604368A9
:1020C000102B036803D099600068C26030BD9A602D
:1020D0000068C16030BD7047704710B502F0E6FD82
:1020E00002F01CFEBDE81040FFF776BE72B6FEE7B8
:1020F0002DE9F041104C114E074694F8A05F30686E
:1021000054F8251004F00CFF0146384604F0FEFC9C
:10211000306044F8257094F8A01F4FF47A72491C7F
:10212000B1FBF2F302FB131184F8A01FBDE8F041EC
:10213000034904F053BD0000CC040020D40000206B
:1021400000007A44F8B500250446009590F8240074
:1021500001280BD0012084F824002046FFF78EFED2
:102160002046FFF7EFFE060002D050E00220F8BD47
:10217000A06A20F4885040F00200A062022000F023
:1021800083FD25490968B1FBF0F0400000E0401EE6
:1021900000900028FBD12068816841F0080181602F
:1021A00000F0A2FC074608E000F09EFCC01B0A28D5
:1021B00003D920688068000715D42068806800076C
:1021C000F2D42068816841F00401816000F08CFC49
:1021D000074612E000F088FCC01B0A280DD92068D1
:1021E0008068400709D5A06A20F0020040F0100086
:1021F000A06284F824500120F8BD20688068400760
:10220000E8D4A06A20F0020040F00100A06284F847
:1022100024503046F8BD000004010020F8B5002429
:10222000009490F824202546012A12D0012280F83B
:1022300024204A681F23072A0DD20668776B521E96
:1022400002EB820293409F430B6893401F437763E6
:1022500019E00220F8BD06680D2A0AD2376BD21F9A
:1022600002EB820293409F430B6893401F43376306
:1022700009E0F76A0D3A02EB820293409F430B6834
:1022800093401F43F7620A68072306680A2A0AD3A5
:10229000F7680A3A02EB420293409F438B689340EF
:1022A0001F43F76008E0376902EB420293409F4307
:1022B0008B6893401F4337610A68102A01D0112AA6
:1022C00020D1124B02689A4217D193681B0219D48D
:1022D000936843F4000393600968102912D10C49F4
:1022E0000C4A0968B1FBF2F101EB8101490000E001
:1022F000491E00910029FBD104E0816A41F02001D0
:102300008162012480F824502046F8BD0024014059
:102310000401002040420F007047704770470000E2
:102320002DE9F0414FF0000704003D467ED0A06A41
:10233000002628B9E66284F82460204600F07EF882
:102340002046FFF79BFDA16AC90600D420B1A06A10
:1023500040F01000A06269E0A16A21F4885141F0C8
:102360000201A1626268E169237B0A4347EA4301F3
:102370000A43A1684FF48077B94209D0012907D0F8
:102380005FF0000194F814C0BCF1010F02D00AE024
:102390003946F7E7F3B1A36A43F02003A362E36A87
:1023A00043F00103E3622368D3F804C02CF4694CC2
:1023B0004CEA010CC3F804C021688B68DFF870C0D8
:1023C00003EA0C0313438B60A168B9420BD00129C7
:1023D00009D00CE0DFF85CC0A3690CEB43330B437E
:1023E00043F40061DFE7218A0D05A5F5801521681A
:1023F000CB6A23F470032B43CB62216889680E4BB0
:102400001940914208D1E662A16A21F0020141F02F
:102410000101A162BDE8F081A06A20F0020040F055
:102420001000A062E06A40F00100E0620120F1E7E4
:10243000FDF7E1FF00E0FFFFFE0E1FFF70B586B065
:1024400000260546009601960296039600681A49F2
:1024500088422FD11949886940F4007088618869E1
:1024600000F400700490886940F004008861886975
:10247000694600F00400049042200090032001907F
:102480000F4800F03BFA104C0E48C4E900068020CB
:10249000C4E9026040002061800060612020A061EA
:1024A0000002E061204600F0B1F908B1FFF71EFE1E
:1024B0002C62656206B070BD00240140001002402D
:1024C0000008014008000240B80100202DE9F04753
:1024D000894604463B4900683B4F0E1D90468842A2
:1024E00001D0B84207D1306810F4702F03D0012515
:1024F0002846BDE8F08794F8240001280CD001207C
:1025000084F824002046FFF71DFD05004FF0000071
:1025100004D084F82400EBE70220EAE7A16A40F641
:102520000162914341F48071A1622168B94218D1DE
:10253000326812F4702F14D0A16A41F48011A162A4
:102540003168490505D5A16A21F4005141F4805153
:10255000A162A16AC9040AD5E16A21F00601E1621B
:1025600006E0A26A22F48012A2624968E9E7E0620A
:1025700084F82400216A15488862216A1448C862D8
:10258000216A1448086321686FF00200086020681F
:10259000816841F480718160216843464A464C312C
:1025A000206A00F061F920688168C1F3424107297F
:1025B000816803D041F48011816099E741F4A00162
:1025C000FAE700000024014000280140D31E000863
:1025D0003B1F0008211F000810B590F821100022B1
:1025E000022905D00421816380F82020012010BD3C
:1025F00001680B6823F00E030B6001680B6823F081
:1026000001030B6090F84030C46B012101FA03F321
:10261000636080F8211080F82020104610BD000073
:1026200010B590F821100024022903D00421816301
:1026300001243DE001680A6822F00E020A60016888
:102640000A6822F001020A601A4A0168914201D127
:10265000012121E0174A1432914201D110211BE0DF
:10266000144A2832914201D1891515E0114A3C32B1
:10267000914201D189140FE00E4A5032914202D1A9
:102680004FF4803108E00B4A6432914202D14FF49A
:10269000801101E04FF08071064A083A5160012133
:1026A00080F82110002180F82010416B01B188478B
:1026B000204610BD080002402DE9F05FC16B0C6898
:1026C00001680B68D0F840C0042202FA0CF2494DB0
:1026D000DFF824A1494E4A4FDFF828B1DFF828E19E
:1026E00022422CD05A072AD50A68920603D40A68D7
:1026F00022F004020A600168A94201D1042219E013
:10270000514501D1402215E0B14202D14FF480621F
:1027100010E0B94202D14FF480420BE0594502D19A
:102720004FF4802206E0714502D14FF4800201E0AF
:102730004FF080622F4908394A60C16A3BE04FF090
:10274000020808FA0CF818EA040F4FF000094FF0DD
:10275000010235D05FEA837832D50B689B0605D439
:102760000B6823F00A030B6080F821200168A9425E
:1027700001D1022219E0514501D1202215E0B142D8
:1027800002D14FF4007210E0B94202D14FF400526E
:102790000BE0594502D14FF4003206E0714502D1F9
:1027A0004FF4001201E04FF00072124908394A60FC
:1027B00080F82090816A00291AD0BDE8F05F0847B0
:1027C000082505FA0CF5254212D01B0710D50B6819
:1027D00023F00E030B6090F84010C36B02FA01F176
:1027E0005960826380F8212080F82090016BE2E735
:1027F000BDE8F09F080002401C000240300002408B
:1028000044000240580002406C00024030B528B33A
:1028100008C8134914221944B1FBF2F18900C163BD
:1028200010498163022141771A6843F6F0718A43A7
:10283000D0E900142143D0E902452C432143046927
:1028400021434469214384692143114319600021D4
:102850004163012242770177084630BD012030BD37
:10286000F8FFFDBF0000024070B5044690F820005C
:10287000002501280CD0012084F8200094F8216064
:102880000020012E06D084F820000225284670BDC5
:10289000022070BD022684F82160A06320680668CB
:1028A00026F0010606602046FFF700FCE06A0028DB
:1028B0002068016802D041F00E0106E021F0040119
:1028C00001602068016841F00A0101602068016828
:1028D00041F001010160D9E770B5044600F004F948
:1028E0000546601C02D004480078044400F0FCF85F
:1028F000401BA042FAD370BDF80000202DE9F84F2C
:10290000DFF8B8910024A9F1040B23460F2709F141
:10291000040AABF1040EC9E00125A5402A40AA42F1
:102920007DD1674ED1F804C0ACEB0608B44532D077
:1029300014DCBCF1030F3AD009DCBCF1000F2AD043
:10294000BCF1010F1CD0BCF1020F31D11DE0BCF174
:10295000110F17D0BCF1120F2AD119E0B8F5881F5A
:1029600019D006DCB8F5803F15D0B8F5801F1FD10F
:1029700011E0B8F5001F0ED0B8F5041F18D10AE019
:10298000CB6815E0CB681B1D12E0CB6808330FE065
:10299000CB680C330CE08B682BB1012B4FF0080394
:1029A00003D0456104E0042302E0056100E0002358
:1029B000FF2A01D8064601E000F104064FEA84052B
:1029C00001D9A5F12005D6F8008007FA05FC28EA10
:1029D0000C0803FA05F548EA0508C6F800804D68BA
:1029E000ED0062D5374DAE6946F00106AE61AD69C6
:1029F00024F0030605F001050095334D06EB050CA8
:102A0000DCF80850A607360F07FA06F825EA08058D
:102A1000DFF8B880404503D14FF0000817E044E0EC
:102A2000DFF8AC80404502D14FF001080FE0DFF83D
:102A3000A480404502D14FF0020808E0DFF89880FA
:102A4000404502D14FF0030801E04FF0040808FAB6
:102A500006F848EA0508CCF808804D68D9F8006007
:102A6000ED024D4601D5164300E096432E604D68B9
:102A7000DAF80060AD02554601D5164300E09643F2
:102A80002E604D68DBF80060AD035D4601D516434E
:102A900000E096432E604D68DEF80060ED03754659
:102AA00001D5164300E096432E60641C0D682A464B
:102AB000E5407FF431AFBDE8F88F00000804014025
:102AC0000000111000100240000001400008014009
:102AD000000C014000100140001401400AB10161E6
:102AE00070470904FBE70000014880687047000058
:102AF000F800002002488168027811448160704724
:102B0000F8000020074810B5016841F0100101608D
:102B1000032000F0A7F80F2000F006F800F050F8AE
:102B2000002010BD0020024030B50546204887B087
:102B3000C16941F00101C161C06906A900F001004D
:102B4000009001A800F0FEF90498B8B100F01AFA5C
:102B5000400018494FF08042B0FBF1F11648491E81
:102B60000260416040F2E7320021C0E90321816048
:102B7000816100F0BDFC040003D015E000F002FA12
:102B8000E7E70D4800F020FD04000DD11C2000F007
:102B90003BF8102D07D2002229461C2000F042F8F5
:102BA0000648056000E0012407B0204630BD000063
:102BB0000010024040420F0074040020FC0000207E
:102BC0000F4808B5816941F001018161816901F017
:102BD00001010091C16941F08051C161C0690022C9
:102BE00000F0805000900F21901E00F01BF8054867
:102BF000416821F0E06141F00071416008BD0000D2
:102C00000010024000000140002809DB00F01F0214
:102C1000012191404009800000F1E020C0F800113E
:102C200070470000F0B40E4B1B680C46C3F3022340
:102C3000C3F10705042D00D90425191D072901D268
:102C4000002300E0DB1E012606FA05F1491E2140A3
:102C500099409E40761E16403143F0BC02F0AAB85F
:102C60000CED00E0064900F0070208684FF6FF038C
:102C7000184040EA0220034A1043086070470000F1
:102C80000CED00E00000FA0510B501460020234CD1
:102C9000012922D0022939D010291DD1616822686A
:102CA000D20119D51E48C1F38342C903805C0AD5FD
:102CB00061681B4AC1F34041921E515C194AB2FB44
:102CC000F1F1484301E0184948436168490203D4DF
:102CD00040000321B0FBF1F010BD226AC2F30121D4
:102CE000012903D1920701D5C80310BD022905D1DE
:102CF000626A920702D549F6404010BD0329FCD113
:102D000021688903F9D54FF2244010BD00F04AF93B
:102D10006168C1F38131491C4900DBE700100240C2
:102D20008471000800127A0000093D002DE9F84383
:102D300005460078354CC00754D0E0690026C00035
:102D400008D4E06940F08050E061E069012600F0BD
:102D5000805000902E480168C90512D40168804651
:102D600041F480710160FFF7BFFE074605E000BF38
:102D7000FFF7BAFEC01B642823D8D8F80000C005AE
:102D8000F6D5206A10F4407021D0A98801F4407172
:102D900081421CD0206A1F49012220F440700A6041
:102DA00000220A602062C00711D0FFF79DFE07468F
:102DB00041F2883808E000BFFFF796FEC11B41458D
:102DC00002D90320BDE8F883206A8007F4D5206A81
:102DD000696820F44070084320621EB1E06920F069
:102DE0008050E0612878800705D56068A96820F4E4
:102DF0004040084360602878C00605D56068E968EF
:102E000020F48000084360600020DBE700100240EF
:102E100000700040400442422DE9F0470F46050093
:102E200061D0434E306800F00700B84209D23068E4
:102E300020F0070038433060306800F00700B842E7
:102E400051D128683B4C810712D5400703D56068F3
:102E500040F4E06060602878000703D5606840F4C3
:102E6000605060606068A96820F0F000084360600E
:102E70002878C00728D06868012810D02168022867
:102E800010D0890700292EDA616821F0030101437F
:102E90006160FFF729FE804641F288390DE0216824
:102EA0008903EFE78901EDE7FFF71EFEA0EB0801BC
:102EB000494502D90320BDE8F0876068696800F0E1
:102EC0000C00B0EB810FEFD1306800F00700B84282
:102ED0000BD9306820F0070038433060306800F0CC
:102EE0000700B84201D00120E5E72878400705D562
:102EF0006068E96820F4E0600843606028780007B3
:102F000006D56068296920F4605040EAC10060601D
:102F100000F058F86168084AC1F30311515CC840D9
:102F20000649086006480068FFF7FEFD0020C2E77A
:102F300000200240001002409471000804010020AB
:102F4000FC0000200F2202600C4A536803F00303C8
:102F50004360536803F0F0038360536803F4E06355
:102F6000C36052684FF4E06303EAD202026104488E
:102F7000006800F007000860704700000010024081
:102F8000002002400448054900684968044AC1F32A
:102F90000221515CC840704704010020001002402B
:102FA000A47100080448054900684968044AC1F34F
:102FB000C221515CC840704704010020001002404B
:102FC000A47100080E4A51680E4801F00C03042B4E
:102FD00011D0082B0FD10C48C1F38343C903C05C47
:102FE0000AD55168084AC1F34041921E515C054A16
:102FF0005043B0FBF1F0704704494843704700006C
:103000000010024000127A007271000800093D00B1
:103010002DE9F84F040070D02078C04DC00749D08A
:103020006868C0F38100012807D06868C0F3810098
:10303000022809D16868C00306D52868800339D5FD
:1030400060680028E7D035E06068B0F5803F0BD0BD
:1030500010B1B0F5A02F11D0286820F4803028607E
:10306000286820F4802002E0286840F4803028603E
:10307000606890B1FFF738FD06460AE0286840F422
:1030800080202860F0E700BFFFF72EFD801B64283A
:1030900073D828688003F7D50CE0FFF725FD0646B6
:1030A00005E000BFFFF720FD801B6428F0D82868EA
:1030B0008003F7D420789A4E80074FF001094FF033
:1030C000000839D5686810F00C0F07D06868C0F3A5
:1030D0008100022809D16868C00306D428688007E7
:1030E00014D52069012808D110E02069B0B1C6F8D4
:1030F0000090FFF7F9FC074605E00AE1FFF7F4FC52
:10310000C01B0228C4D828688007F7D528686169E1
:1031100020F0F80040EAC10028600DE0C6F8008009
:10312000FFF7E2FC074604E0FFF7DEFCC01B0228C5
:1031300023D828688007F7D4207800072CD5794851
:10314000A169D9B1C0F80090FFF7CEFC074604E0B2
:10315000FFF7CAFCC01B02280FD8686A8007F7D5A2
:1031600071484FF4FA510068B0FBF1F0009000BFD5
:103170000098411E0091FAD20EE080E0C0F8008075
:10318000FFF7B2FC074604E0FFF7AEFCC01B0228C5
:1031900075D8686A8007F7D42078400760D5E86959
:1031A0000027C00008D4E86940F08050E861E86971
:1031B000012700F0805000905C480168C90513D4D5
:1031C0000168834641F480710160FFF78DFC8246FF
:1031D00006E000BFFFF788FCA0EB0A0064284ED889
:1031E000DBF80000C005F5D5E06801280AD008B179
:1031F000052813D0286A20F001002862286A20F0F0
:10320000040002E0286A40F001002862E06841F210
:10321000883B98B1FFF768FC82460BE0286A40F0D3
:1032200004002862EEE700BFFFF75EFCA0EB0A0196
:1032300059455AD8286A8007F6D50CE0FFF754FCA8
:10324000824605E0FFF750FCA0EB0A0159454CD837
:10325000286A8007F6D41FB1E86920F08050E86141
:10326000E06988B36968C1F38101022944D002286A
:10327000C6F8608004D0FFF737FC044638E034E03D
:10328000FFF732FC074604E0FFF72EFCC01B0228C4
:103290002BD828688001F7D4206AB0F5803F05D18B
:1032A0006868A16820F4003008436860D4E9080128
:1032B0000843696821F4741108436860C6F8609097
:1032C000FFF712FC044606E025E000BFFFF70CFC08
:1032D000001B022809D828688001F7D51BE000BF31
:1032E000FFF702FC001B022802D90320BDE8F88F7B
:1032F00028688001F4D40EE00128F7D06868226ABB
:1033000000F48031914204D1616A00F47010884267
:1033100001D00120EAE70020E8E7000000100240A9
:10332000000042428004424204010020007000403C
:103330007047704710B590F83C20012A22D0012236
:1033400080F83C20CA688C6822F4407222434C68A2
:1033500022F4806222430C6822F4006222430C694A
:1033600022F4805222434C6922F400522243C9695C
:10337000002322F480420A4301684A6480F83C300A
:10338000002010BD022010BD70B590F83C20012A2D
:1033900026D0012480F83C40022280F83D200368BA
:1033A0005A689D6822F070060A6832435A600D4BD5
:1033B00002689A4208D0B2F1804F05D00A4B9A4277
:1033C00002D00A4B9A4204D1496825F08003194380
:1033D000916080F83D40002180F83C10084670BDA7
:1033E000022070BD002C0140000400400008004095
:1033F00010B50446022249B104290ED0082913D081
:1034000094F84500012816D0012010BD94F8420020
:103410000128F9D184F842200FE094F843000128F4
:10342000F2D184F8432008E094F844000128EBD15D
:1034300084F8442001E084F845200422206801F04B
:103440006CF92068416C41F4004141640B492068EB
:10345000884208D0B0F1804F05D00949884202D097
:103460000849884204D1816801F00701062903D088
:10347000016841F001010160002010BD002C0140F5
:10348000000400400008004070B504460D46006886
:10349000002201F042F92068036A41F211110B4247
:1034A00040F2444206D1036A134203D1436C23F431
:1034B000004343642068036A0B4206D1016A11424B
:1034C00003D1016821F00101016001203DB1042D0B
:1034D00008D0082D09D084F84500002070BD84F87C
:1034E0004200FAE784F84300F7E784F84400F4E781
:1034F00010B5040003D094F83D0010B107E001209E
:1035000010BD002084F83C00204600F01FF8022087
:1035100084F83D00211D206801F0B6F8012084F8F0
:10352000460084F83E0084F83F0084F8400084F8A8
:10353000410084F8420084F8430084F8440084F891
:10354000450084F83D00002010BD000008B51A4A6F
:1035500001681A48914208D1816941F40061816192
:10356000806900F40060009008BD154A91420ED1B8
:10357000C16941F00201C161C069002200F002008E
:10358000009005211D20FFF74DFB1D2010E00D4A86
:103590009142E9D1C16941F00401C161C0690022D1
:1035A00000F00400009005211E20FFF73BFB1E20C9
:1035B000BDE80840FFF728BB002C01400010024086
:1035C000000400400008004090F83D10012901D09F
:1035D00001207047022180F83D100168CA6842F05E
:1035E0000102CA6000680B49884208D0B0F1804FE0
:1035F00005D00949884202D00849884204D181682F
:1036000001F00701062903D0016841F001010160C2
:1036100000207047002C01400004004000080040DA
:1036200070B5044690F83C000025012817D001260B
:1036300084F83C60022084F83D002068826822F013
:10364000770222F47F4282600868502838D00DDC6F
:1036500020284FD005DC90B3102811D14AE0022079
:1036600070BD302846D040280AD13BE060282FD0DA
:1036700070280DD0B0F5805F03D0B0F5005F12D098
:10368000012584F83D60002084F83C00284670BD88
:10369000CB68D1E90121206801F04CF820688168ED
:1036A00041F0770109E0CB68D1E90121206801F000
:1036B00041F82068816841F480418160E1E719E0C8
:1036C000CA684968206801F0E9F85021206806E0DE
:1036D000CA684968206801F0F2F86021206801F0AA
:1036E00033F8CEE7CA684968206801F0D7F840216E
:1036F0002068F4E7226801461046F0E770472DE99C
:10370000F04104460068C66805694FF00007A90744
:1037100013D5B10711D5F91E01610120207720686A
:1037200080698007204602D0FFF7E8FF04E000F040
:10373000C3F8204600F055F92777680716D57007BB
:1037400014D521686FF004000861022020772068FA
:10375000806910F4407F204602D0FFF7CFFF04E0DD
:1037600000F0AAF8204600F03CF92777280715D585
:10377000300713D521686FF0080008610420207716
:103780002068C0698007204602D0FFF7B7FF04E039
:1037900000F092F8204600F024F92777E80616D5C5
:1037A000F00614D521686FF010000861082020771A
:1037B0002068C06910F4407F204602D0FFF79EFFCA
:1037C00004E000F079F8204600F00BF92777E807CD
:1037D00008D0F00706D021686FF00100086120468C
:1037E00000F086F9280608D5300606D521686FF066
:1037F000800008612046FFF79BFD680608D570062B
:1038000006D521686FF040000861204600F077F986
:10381000A8060AD5B00608D521686FF02000086117
:103820002046BDE8F041FFF784BDBDE8F08100000F
:1038300030B585B00021009101910291039100689B
:10384000194988422DD11948816941F008018161E7
:10385000816901F008010491816941F004018161ED
:103860008069022400F0040004904FF4C040CDE9C8
:10387000000469460E480394FFF740F84FF4407087
:10388000CDE9000403200B4D039069462846FFF75D
:1038900035F8A002CDE90004694628460394FFF7F5
:1038A0002DF805B030BD0000002C01400010024092
:1038B000000C014000080140704770B5044690F8C4
:1038C0003C0000260D4601280FD0012084F83C0062
:1038D0006AB1042A1DD0082A2FD00C2A3FD0012615
:1038E000002084F83C00304670BD022070BD206886
:1038F00000F032FF2068816941F008018161206891
:10390000816921F004018161206881692A6911437C
:1039100011E0206800F048FF2068816941F40061EF
:1039200081612068816921F48061816120688169F9
:103930002A6941EA02218161D2E7206800F060FF34
:103940002068C16941F00801C1612068C16921F0A6
:103950000401C1612068C1692A69114311E020682E
:1039600000F07AFF2068C16941F40061C1612068FC
:10397000C16921F48061C1612068C1692A6941EA95
:103980000221C161ACE710B5040003D094F83D00FA
:1039900010B107E0012010BD002084F83C00204653
:1039A00000F01EF8022084F83D00211D206800F080
:1039B0006BFE012084F8460084F83E0084F83F0046
:1039C00084F8400084F8410084F8420084F8430001
:1039D00084F8440084F8450084F83D00002010BDC0
:1039E0007047704710B50446022249B104290ED031
:1039F000082913D094F84100012816D0012010BDE9
:103A000094F83E000128F9D184F83E200FE094F8A4
:103A10003F000128F2D184F83F2008E094F84000EC
:103A20000128EBD184F8402001E084F841200122F4
:103A3000206800F065FE0F492068884203D1426C7F
:103A400042F4004242642068884208D0B0F1804FBE
:103A500005D00949884202D00849884204D18168CA
:103A600001F00701062903D0016841F0010101605E
:103A7000002010BD002C0140000400400008004060
:103A800030B504460D460068002200F039FE174BA1
:103A900041F2111120688A10984209D1036A0B4241
:103AA00006D1036A134203D1436C23F400434364F9
:103AB0002068036A0B4206D1016A114203D10168F2
:103AC00021F00101016001203DB1042D08D0082D35
:103AD00009D084F84100002030BD84F83E00FAE7A8
:103AE00084F83F00F7E784F84000F4E7002C014039
:103AF0000068B0F1804F01D1FEF7FCBF70477047FE
:103B000070477047F8B5016804460868CA684B6991
:103B100010F00F0F4FF0000559D003F0010602F42A
:103B20009077374365D0C10705D0D10503D5616CC7
:103B300041F001016164410705D5D90703D0616CEB
:103B400041F002016164810705D5D90703D0616C9A
:103B500041F004016164010707D502F020013143FF
:103B600003D0616C41F008016164616C00293AD0B6
:103B7000800604D5900602D5204600F08CFF206810
:103B80004069616CC0F38010090700D460B320461F
:103B900000F04CFF20684069400621D520681430B1
:103BA00050E8001F21F0400140E80012002AF5D142
:103BB000E06BA8B16D494163E06BFEF731FD002871
:103BC00011D0E06B416B01B0BDE8F04008478306BF
:103BD0000FD593060DD52046BDE8F84000F05BBF39
:103BE0002046FFF78EFFF8BD2046FFF78AFF656489
:103BF000F8BD266B2023012E7CD1C6067AD5D606C9
:103C000078D508684868009048694FF00206400679
:103C100040D5E16B086840680004000CE8D0A28D34
:103C20008242E5D9E085886920282DD020680C30B3
:103C300050E8001F21F4807140E80012002AF5D1FD
:103C40002068143050E8001F21F0010140E8001204
:103C5000002AF5D12068143050E8001F21F04001FF
:103C600040E80012002AF5D184F84230256320682C
:103C70000C3050E8001F21F0100140E80012002A2B
:103C8000F5D1E06BFEF7A8FC6663A08DE18D401ACC
:103C900081B22AE0A08DE18D401A81B2E08D00282A
:103CA000A6D00029A4D022680C3252E8000F20F4DC
:103CB000907042E80007002FF5D12068143050E8DA
:103CC000002F22F0010240E80027002FF5D184F8F0
:103CD0004230256320680C3050E8002F22F010029B
:103CE00040E80023002BF5D166632046FFF708FF6C
:103CF000F8BDFFE705062BD5150629D594F8410038
:103D00002128F5D1A068B0F5805F01D12069B0B15C
:103D1000206A411C2162216800784860E08C401EC6
:103D20000004000CE084E3D12068C16821F0800128
:103D3000C1602068C16841F04001C160D8E7206AD5
:103D40000088C0F308004860206A801C2062E5E714
:103D50004006CDD55006CBD5CA68204622F0400299
:103D6000CA6084F8413000F053F9C1E7E348000825
:103D700070B5040004D094F84100002510B106E0AD
:103D8000012070BD84F84050204600F023F8242024
:103D900084F841002068C16821F40051C1602046C8
:103DA00000F0DAFE2068016921F490410161206889
:103DB000416921F02A0141612068C16841F4005144
:103DC000C1606564202084F8410084F84200656386
:103DD000002070BD2DE9F04385B0002500950195C8
:103DE000029503950446DFF874C103685C4802211C
:103DF00003225C4E80274FF020094FF010086345E6
:103E000052D1836943F480438361836903F480431F
:103E10000493836943F0080383618069039200F08F
:103E2000080004904020CDE9000169463046FEF7C5
:103E300065FDCDE90075694630460295FEF75EFDE9
:103E40004948416841F0E06141F004014160484E59
:103E50004648C6E90005C6E902573561C6E9055975
:103E60003046F561FEF7D2FC08B1FEF73FF9E66394
:103E700074623F4E3D4844361438C6E902573561F6
:103E80007561B561F561C6E900083046FEF7BEFC14
:103E900008B1FEF72BF9A6630022052125207462E4
:103EA000FEF7C0FE252053E0DFF8C8C0634551D1BE
:103EB000C36943F48023C361C36903F4802304937B
:103EC000836943F0080383618069039200F008006E
:103ED00004904FF48060CDE9000169463046FEF75A
:103EE0000DFD4FF40060CDE90005694630460295AE
:103EF000FEF704FD1E4E1D4888363C38C6E90257C1
:103F000035617561B561F561C6E900083046FEF7B7
:103F10007DFC08B1FEF7EAF8A6637462144E1348FC
:103F2000CC362838C6E90005C6E902573561C6E92E
:103F300005593046F561FEF769FC08B1FEF7D6F881
:103F4000E6630022052127207462FEF76BFE27201E
:103F5000FEF75AFE05B0BDE8F083000000380140CE
:103F600000100240000C01400000014058000240D7
:103F7000640300200048004090F84230202B01D01C
:103F80000220704721B11AB10023036300F040BE44
:103F9000012070477047704770B5044690F84100A3
:103FA000202801D0022070BD49B342B32162A2840F
:103FB000E28400206064212384F84130A56B114B1A
:103FC000AB62A56B104BEB62A56B104B2B63A36B25
:103FD0005863256813462A1DA06BFEF745FC21682F
:103FE0006FF0400008602068143050E8001F41F076
:103FF000800140E80012002AF5D1002070BD0120A8
:1040000070BD0000E1490008234A0008F348000899
:1040100070477047FEE700003EB500211748009149
:104020000191154A02910260921582600124047385
:10403000017502254FF460220561C2614160FEF7FF
:104040006FF908B1FEF752F800940194062469460E
:104050000A480294FEF7E2F808B1FEF747F8072095
:104060000094CDE9015069460448FEF7D7F80028CE
:1040700001D0FEF73BF83EBD00240140880100203E
:10408000194808B5416941F00101416140690022C8
:1040900000F00100009005210B20FEF7C3FD0B206E
:1040A000FEF7B2FD002205210C20FEF7BBFD0C201F
:1040B000FEF7AAFD002205210D20FEF7B3FD0D201D
:1040C000FEF7A2FD002205210E20FEF7ABFD0E201B
:1040D000FEF79AFD002205210F20FEF7A3FDBDE8A3
:1040E00008400F20FEF790BD0010024010B50D4AA9
:1040F00000210D4800F060FF0C4C0A4A00212060AE
:1041000024320B4800F058FF064A60604832002114
:10411000084800F051FFA06002486C3000F0ACFE8F
:10412000E06010BDF47000087D450008000000202C
:1041300079440008AD4400082DE9F04385B000241F
:1041400029480094019402940394816941F020016C
:104150008161816901F020010491816941F00401CC
:104160008161816901F004010491816941F00801D4
:1041700081618069DFF8748000F0080004900022FB
:1041800038214046FEF7AAFCDFF864904FF4007730
:10419000002239464846FEF7A1FC0420CDE9000480
:1041A000694640460294FEF7A9FB38200125022605
:1041B000CDE90005CDE9024669464046FEF79EFB83
:1041C0000820CDE90004694648460294FEF796FBB4
:1041D00000970396CDE9015469464846FEF78EFBE9
:1041E00005B0BDE8F0830000001002400008014067
:1041F000000C014010B596B000240F941094119457
:10420000129413941C2168461494FCF73FF9202162
:1042100007A8FCF73BF933483149C0E9001440F2E4
:10422000CF21C0E9024180210461C0E90541FFF7C7
:104230005FF908B1FDF75AFF4FF480500F900FA9B6
:104240002848FFF7EDF908B1FDF750FF2548FFF7C3
:104250009AFB08B1FDF74AFF139413A9214814945F
:10426000FFF792F808B1FDF741FF6020009040F29F
:104270006710CDE901040394049405940022694673
:1042800018480694FFF719FB08B1FDF72FFF042229
:1042900069461448FFF711FB08B1FDF727FF4FF4FB
:1042A000967001900C2269460E48FFF706FB08B194
:1042B000FDF71CFF07940E200894CDE909404FF448
:1042C0000050CDE90B4007A906480E94FFF732F8DD
:1042D00008B1FDF70BFF0348FFF7AAFA16B010BDAF
:1042E000002C0140FC01002010B586B000241748C6
:1042F000009401940294039404941349059401607A
:1043000041F61F41C0E901146321C0E90314802173
:104310008161FFF7EDF808B1FDF7E8FE4FF480503A
:10432000009069460948FFF77BF908B1FDF7DEFE0A
:10433000049404A905480594FFF726F8002801D045
:10434000FDF7D4FE06B010BD00040040440200207A
:1043500010B586B000241748009401940294039489
:10436000049413490594016040F21F11C0E901143F
:104370006321C0E9031480218161FFF7B9F808B116
:10438000FDF7B4FE4FF48050009069460948FFF7EE
:1043900047F908B1FDF7AAFE049404A9054805945D
:1043A000FEF7F2FF002801D0FDF7A0FE06B010BD19
:1043B000000800408C0200200C4810B50A4901603A
:1043C0004FF4E1314160002181600C22C160C0E9FD
:1043D00004128161C161FFF7CBFC002803D0BDE866
:1043E0001040FDF783BE10BD00380140D40200200C
:1043F0000C4810B50A4901604FF4E13141600021D9
:1044000081600C22C160C0E904128161C161FFF7C3
:10441000AFFC002803D0BDE81040FDF767BE10BD1B
:10442000004800401C030020FEE7FEE710B5054CE5
:10443000002020700448FDF7FDFD2070002800D00A
:10444000012010BD28000020BC04002010B500226F
:104450004FF400710548FEF741FB05490020087044
:10446000BDE810400E210348FBF7EEBF000C0140F1
:1044700028000020BC040020FDF7C2FD0848FFF71B
:10448000A3F80848FFF7A0F8074C012210212046A6
:10449000FEF724FBFFF7DAFF012000F0C1FCF4E790
:1044A000440200208C020020000801401CB5DFF807
:1044B000A8B0DFF8A8A0DFF8A89000BF4FF0FF3346
:1044C000022203215746DAF8000000F015FDDFF85C
:1044D00094800646B8F8000002F0D2FA04460D4671
:1044E000DBF8A40F02F0E6FA02460B461EA0CDE967
:1044F000004500F035FCF00705D0FDF785FC0121F3
:10450000386800F09AFCB00709D5FFF78FFF10B1AB
:104510001849012008700221386800F08EFC00253F
:104520004E464FF47A77B8F80000D9F8004002F010
:1045300017FC80464046214602F0E8FA6D1C04460E
:10454000BD42F7DB0C4902F049FB7060002030608F
:10455000012000F065FCB1E7CC0400200C00002035
:1045600020000020D8000020252E33662C252E3375
:10457000660A00001C00002000007A44012000F0C0
:104580004FFCFBE710B54FF0E020006902F082F825
:10459000012803D0BDE8104001F0B0BD10BD30B51A
:1045A00093B028216846FBF771FF14210AA8FBF796
:1045B0006DFF002501200F951095119501041295AE
:1045C0008DE8230004904FF4E010CDE90810022498
:1045D00007946846FEF71CFD08B172B6FEE70AA90B
:1045E0000F2081E831004FF48060CDE90D050221F4
:1045F0000AA8FEF711FC08B172B6FEE74FF40040BE
:1046000011900F940FA8FEF791FB002801D072B60D
:10461000FEE713B030BD70470148FFF770B80000E7
:104620007404002070B51348FFF769F8124C002598
:104630002068022806DB6068012806D165602560D5
:10464000FDF7DEFC6068012810D000280DD1A068BD
:10465000142807DB01206060FDF7B4FCA5606068EA
:10466000002802D1A068401CA06070BD2068401CDA
:10467000206070BD44020020100000200148FFF7B8
:104680003EB800008C020020F0B50268194B1A4CAD
:104690001A4D4FF08047984205D0B84203D0A0424F
:1046A00001D0A84203D122F070064A6832439842F2
:1046B00005D0B84203D0A04201D0A84203D122F4D1
:1046C0004074CA6822434C6922F08002224302608F
:1046D0008A68C2620A688262984201D109690163EC
:1046E000012141610169C90703D0016921F001017C
:1046F0000161F0BD002C01400004004000080040B2
:1047000010B501F01F030121046A99408C43046233
:10471000016A9A401143016210BD10B501F00F0308
:104720000421046A99408C430462016A9A4011434F
:10473000016210BD10B5846842EA032224F47F446C
:104740000A432243826010BD826822F070020A434D
:1047500042F007018160704730B5036A026A22F0B7
:10476000010202624268846924F073050C682C43DC
:1047700023F002058B682B430A4DA8420BD123F08E
:104780000805CB6822F440722B434D6923F00403E3
:1047900015438A692A434260846149684163036220
:1047A00030BD0000002C014030B5026A036A23F0DE
:1047B00010030362436884690D6824F4E64444EA04
:1047C00005248D6822F0200242EA05120B4DA84212
:1047D0000ED1CD6822F0800242EA05124D6923F421
:1047E000406343EA85038D6922F0400243EA850372
:1047F0004360846149688163026230BD002C0140DE
:1048000030B5036A026A22F4807202624268C469A7
:1048100023F4007324F073050C682C438D6843EA7D
:1048200005230C4DA8420ED1CD6823F4006343EA62
:1048300005234D6922F4405242EA05128D6923F4A2
:10484000806342EA05124260C4614968C163036241
:1048500030BD0000002C014030B5046A026A22F429
:10486000805202624268C3690D6823F4E64343EA5A
:1048700005238D6824F4005444EA0534064DA8420B
:1048800004D14D6922F4804242EA85124260C3613C
:1048900049680164046230BD002C014010B5036A10
:1048A000046A24F001040462846924F0F00444EAF8
:1048B000021423F00A020A438461026210BD10B59B
:1048C000036A046A24F010040462846923F0A003DC
:1048D00024F4704444EA023243EA01118261016225
:1048E00010BD10B5406A0021C185C184FFF709F9E8
:1048F00010BD70B5446A2068406994F84110C0F357
:10490000C0100025212904D118B1E584204600F00B
:10491000B4F82068406994F84210C0F3801022294E
:1049200004D118B1E585204600F080F8606C40F0B5
:10493000100060642046FFF7E4F870BD10B5014632
:10494000406A096809684FF0000289062ED4C285C2
:1049500001680C3151E8003F23F4807341E80034D2
:10496000002CF5D10168143151E8003F23F0010318
:1049700041E80034002CF5D10168143151E8003FC2
:1049800023F0400341E80034002CF5D1202180F8C9
:104990004210016B012909D101680C3151E8003F37
:1049A00023F0100341E80034002CF5D14263016B81
:1049B000012902D0FFF7EEFA10BD818DFFF7A0F8B4
:1049C00010BD10B5406A01214163016B012902D07D
:1049D000FFF7E1FA10BD818D4908FFF791F810BD8E
:1049E00010B50146406A09680968890616D4002195
:1049F000C1840168143151E8002F22F0800241E89F
:104A00000023002BF5D101680C3151E8002F42F052
:104A1000400241E80023002BF5D110BDFFF7F8FA62
:104A200010BD10B5406AFFF7F4FA10BD01680C31F3
:104A300051E8002F22F4907241E80023002BF5D1B9
:104A40000168143151E8002F22F0010241E80023EF
:104A5000002BF5D1016B012909D101680C3151E816
:104A6000002F22F0100241E80023002BF5D1202175
:104A700080F8421000210163704701680C3151E851
:104A8000002F22F0C00241E80023002BF5D12021A5
:104A900080F84110704708B590F84210222901D0E3
:104AA000022008BD82684FF480539A4201D1016907
:104AB00021B1816A9A421BD04AB10AE00268816A38
:104AC0005268C2F308020A80816A891C08E0026900
:104AD00072B10268526802F07F020A70816A491C52
:104AE0008162C18D491E0904090CC18503D01BE0F8
:104AF00002685268F1E70168CA6822F02002CA60C1
:104B00000168CA6822F48072CA6001684A6922F0AA
:104B100001024A61202180F8421000214163026BAA
:104B2000012A03D0FFF736FA002008BD01630168AF
:104B30000C3151E8002F22F0100241E80023002B35
:104B4000F5D101680A68D20602D50A684968009161
:104B5000818DFEF7D5FFE7E770B50446006801696F
:104B6000E26821F44051114301612169A0680843C2
:104B7000616908432168CA6841F20C639A430243A1
:104B8000CA6020684169A26921F440711143416102
:104B90001E492068884202D1FEF704FA01E0FEF7C0
:104BA000F1F900EBC00101EB0012606864218000A4
:104BB000B2FBF0F3B3FBF1F36FF018067343B2FBF3
:104BC000F0F5B2FBF0F605EB8305322303EB051598
:104BD000B5FBF1F5B6FBF1F605F0F00505EB0615B2
:104BE000B2FBF0F6B2FBF0F0B0FBF1F06FF01802A0
:104BF000504306EB800003EB0010B0FBF1F021689E
:104C000000F00F002844886070BD000000380140AB
:104C100038B58162044682850020134660642222F2
:104C200084F84220E56B1B4AAA62E56B1A4AEA62E5
:104C3000E56B1A4A2A63E26B50630A462168E06B0F
:104C4000091DFDF711FE2068016840680090206989
:104C500048B120680C3050E8001F41F4807140E8F2
:104C60000012002AF5D12068143050E8001F41F0EE
:104C7000010140E80012002AF5D12068143050E804
:104C8000001F41F0400140E80012002AF5D1002049
:104C900038BD00003D490008C3490008F34800083A
:104CA0000148FEF72FBF0000D40200200E22024967
:104CB0000248FFF761B9000078140020D4020020F8
:104CC0000D4808B500680168C90613D50168406839
:104CD00000900E2209490A48FBF769FB0E2207499A
:104CE0000548FFF749F9074802210068BDE8084078
:104CF00000F0D8B808BD0000D402002078140020CD
:104D0000BC0400200C00002010B500F011F8BDE834
:104D100010400148FEF7F6BE1C0300200E22024997
:104D20000248FFF729B90000861400201C03002068
:104D3000084882B000680168C90608D50168406863
:104D400000900E220449034802B0FFF715B902B0E3
:104D5000704700001C03002086140020FEE70000BE
:104D60000FB400B599B01BAA68461A99FBF7EEFA82
:104D70006846FBF7FDFA82B269460348FFF70CF973
:104D800019B05DF814FB0000D4020020490050EA7D
:104D9000C12018BF04204A0D18BF40F0010040F2A6
:104DA000FF72B2EB515F08BF40F00200012808BF5C
:104DB000052070470907090E002804DB00F1E020F8
:104DC00080F80014704700F00F0000F1E02080F838
:104DD000141D704730380A2801D201207047002086
:104DE0007047FDF78FFEFFF7DAFBFFF7A5F9FFF736
:104DF00047F9FFF7FFF9FFF7DFFAFFF7F9FAFFF7D7
:104E00000BF9FFF771FAFFF7A3FAFDF766F9FDF763
:104E100063F900F0A3F8FFF769F900F0B1F8FEE7D5
:104E200010B5EFF3058111B16FF0050403E0002424
:104E300008B100F09DFE204610BD70B50E4605007D
:104E400002D0300E002802D06FF0030412E0EFF31E
:104E50000580002828460AD001F01CF80446314697
:104E6000284600F0EBFF28B96FF0020402E000F0E2
:104E7000C5FF0446204670BD10B54FF00001EFF3AA
:104E800005826AB948B1D0E902202AB1202807D3A7
:104E9000104600F0E9FF02E010B900F0D7FF01462C
:104EA000084610BD38B50C4610B1210E002902D0BD
:104EB0006FF0030038BDEFF30581B1B1002100911F
:104EC0006A46214601F03AF860B10099204600296F
:104ED000F0D0084A4FF080511160BFF34F8FBFF3FD
:104EE0006F8F38BD6FF0020038BD214600F0DFFF44
:104EF00038BD000004ED00E0F8B51D4616460C462E
:104F000010B1210E002902D06FF00300F8BDEFF3BD
:104F1000058111B16FF00500F8BDF10701D0012343
:104F200000E00023B10701D5002200E00122214664
:104F3000009501F00BF8F3076FF001016FF002022A
:104F400006D0844306D1F8BD0846F8BD1046F8BD2A
:104F50000442FCD1002DF9D0F6E70000EFF3058004
:104F600010B16FF0050070470448016811B14FF0AF
:104F7000FF30704701210160002070475801002078
:104F800010B5EFF3058010B16FF0050010BD0848B3
:104F90000168012902D04FF0FF3010BD054A002101
:104FA00082F8141D0221016000F0AAFE002010BD4D
:104FB000580100200BE000E02DE9FF414FEA01031A
:104FC0004FF00005EFF30581039549BB40B340273F
:104FD000182100244AB3166806B1344696691EB1FA
:104FE0003146761E382E02D21679F60703D00020FD
:104FF00004B0BDE8F081566906B1B708D2F808C020
:10500000BCF1000F0DD0D5685C2D18D312693AB1F0
:1050100036B18DE806103A46214601F010FB0390A8
:105020000DE0D6685EB912694AB903AACDE900124B
:10503000BAB2214601F0D6FA012800D003950398B0
:10504000D6E700002DE9F041134C0F460546E6680F
:105050002068001D00F04AFC681C07D137B12168A8
:10506000BDE8F0410D48091D00F09EBC20683544A4
:10507000B5424560216805D2A06BBDE8F041091D2D
:1050800000F07ABC606B091D00F076FCA06A8542D6
:1050900000D2A562BDE8F08108010020841900203B
:1050A0002DE9F041054600F08BFC2D4CA068401C1A
:1050B000A06020682B4F10B1606930B32BE02560F1
:1050C000A068012827D1002606EB860007EB8000A8
:1050D00000F044FC761C382EF6D3234800F03EFC4A
:1050E0002148143000F03AFC1F48283000F036FC0C
:1050F0001D483C3000F032FC1B48503000F02EFCC4
:10510000194860631430A06305E02068E96AC06A4A
:10511000884200D82560606A401C60626864E86A62
:105120002169884200D9206100EB800007EB8000F4
:10513000291D00F039FC00F063FC606900280CD0E8
:105140002068E96AC06A884207D208494FF0805057
:105150000860BFF34F8FBFF36F8FBDE8F081000091
:1051600008010020D41400203419002004ED00E0D0
:1051700038B500F025FC104C2068C8B90F4800F085
:10518000EDFB0E48143000F0E9FB0C48E0601430F1
:1051900020610A4B0020F03B009003F150021021E7
:1051A0000A2000F0C1FF206010B105A100F0AAFCA8
:1051B000BDE8384000F024BC44010020881A0020DB
:1051C000546D72510000000030B4026C0B46002A8E
:1051D0000BD0C1681144C1608468A14201D3016849
:1051E000C16030BC1846FBF7E2B830BC70472DE90F
:1051F000F041856B174604460026026C82B1C7B1A8
:10520000E068FBF7D4F8E168206C091AE1602268D5
:10521000914202D2A168081AE060022F16D017E06E
:105220002068A8B9A06801F0ADFA06460020A06089
:105230000EE06068FBF7BBF8216C606808446060B2
:10524000A168884204D32068606001E005B16D1E4A
:105250006D1CA5633046BDE8F08110B5044690F89A
:10526000590058B101280CD002280FD0502080F3EB
:105270001188BFF34F8FBFF36F8FFEE7206B00F0F5
:10528000D3FB2046BDE8104000F0CEBB10BD0000AF
:1052900010484FF44061420706D0C01D0D4920F070
:1052A0000700411AC1F540610B4A00230144C2E9DD
:1052B00000030839183A21F0070111604B600B60B8
:1052C0000B1AC0E9001393604FF000405360506127
:1052D00070470000681E002074010020144E154C19
:1052E000A6F29C474FF08058DFF84C9012E000BFC8
:1052F00000F066FBF068C568281D00F0F7FAA068AA
:10530000401EA0606068401E606000F079FB284687
:10531000FFF7A3FF60680028EAD138680128F9D9AF
:10532000C9F80080BFF34F8FBFF36F8FF2E7000023
:10533000701900200801002004ED00E070B51D4642
:10534000049C51B1C4F80020C4E90F01012120469A
:1053500000F01EFF84F84C5070BD2460F4E700009C
:105360002DE9F05F8846DDE90B94154683469100F0
:105370009A460A9EA522206BFBF75EF86FF00301A8
:10538000206B01EB8501084420F00707780707D060
:10539000502080F31188BFF34F8FBFF36F8FFEE76C
:1053A0000025B8F1000F0FD05FF00000221818F8A8
:1053B000001082F8341018F8001011B1401C1028A9
:1053C000F4D384F8435001E084F83450382E00D3ED
:1053D0003726E662C4E91365201D00F0CAFA04F11D
:1053E000180000F0C6FA2461C6F138006462A061BA
:1053F000656584F8585052465946384600F064FABC
:105400002060B9F1000F01D0C9F80040BDE8F09F5D
:1054100030B5114900E011460A688242FBD34B685F
:105420005C18844203D140681844486008464368C9
:105430001C18944209D1084C183C2468A24209D097
:1054400052681A4442600A6812680260814200D0C1
:10545000086030BD0460F9E77401002070B50024D5
:1054600041600B4D0061914206D8D11A8269914288
:1054700006D2011D286907E09A4203D2994201D35E
:10548000012403E0011DE86800F076FA204670BDB3
:105490004401002010B5044600F092FAA06B28B138
:1054A0005FF0000400F0ACFA204610BD0124F9E7DB
:1054B00030B589B03C4D6EE00498002806DADDE98D
:1054C0000601059A90470498002864DB069C6069F1
:1054D00010B1201D00F00AFA03A800F0D7F8024628
:1054E00004980A2857D2DFE800F00505052D334A55
:1054F00005052D3394F8280040F0010084F82800B9
:105500000599A069059B01442046FFF7A7FF68B3F2
:10551000216A2046884794F8280040073BD50020A0
:1055200000900598A169002342181946204601F011
:1055300033FAD8B9502080F31188BFF34F8FBFF3EF
:105540006F8FFEE714F8280F20F00100207022E092
:1055500094F8280040F0010084F828000598A06124
:1055600028B1811813462046FFF778FF13E050203A
:1055700080F31188BFF34F8FBFF36F8FFEE794F86E
:105580002800810703D4204600F04EFA03E020F003
:10559000010084F82800002204A9286800F04CFFCC
:1055A000002889D109B030BD440100202DE9FC411B
:1055B0000F46054600F0E8FB01A800F067F8044636
:1055C000019818B101F056F9BDE8FC81254EAFB144
:1055D00030690068D0B30027291B3A46306800F0D4
:1055E000A5FA01F047F90028EED11F494FF080508D
:1055F0000860BFF34F8FBFF36F8FE5E7A542EBD88D
:1056000001F038F9F0682746C068C468201D00F032
:105610006DF994F82800410719D5A0692B46411966
:105620003A462046FFF71AFFA8B10020034601467C
:1056300000902A46204601F0AFF960B9502080F36F
:105640001188BFF34F8FBFF36F8FFEE707E020F0A5
:10565000010084F82800216A20468847B4E7012722
:10566000BAE700004401002004ED00E00648416B69
:10567000096829B1416BC968C96849688162704786
:105680004FF0FF31FAE700000801002070B5054631
:1056900001F00EF8064E0446B068844203D200F0D2
:1056A00009F8012000E0002028602046B46070BDA9
:1056B00044010020F8B5194D20E0C068C4680668B0
:1056C000201D00F013F9216A2046884794F828002D
:1056D000400713D5A0693044B04206D92461606008
:1056E000211DE86800F048F908E000200346014663
:1056F00000903246204601F04FF938B1E868016861
:105700000029DAD12969C5E90310F8BD502080F3DA
:105710001188BFF34F8FBFF36F8FFEE74401002066
:1057200008484068401C4FF0500080F3118804D0B6
:10573000BFF34F8FBFF36F8FFEE7BFF34F8FBFF302
:105740006F8FFEE77C0100200346002012B19943D1
:1057500002D070470B42FCD001207047074CE06834
:10576000016841B1C0680021D0F80000FFF71EFFBA
:10577000FFF79EFEF3E701210020F7E74401002038
:105780002DE9F041044600F01BF994F9455004F16D
:10579000240609E0606A48B1304601F033F808B1E8
:1057A00000F014FA6D1E6DB2002DF3DC4FF0FF36E1
:1057B00084F8456000F024F900F002F994F94450AF
:1057C00004F1100709E0206948B1384601F01AF8E1
:1057D00008B100F0FBF96D1E6DB2002DF3DC84F80A
:1057E0004460BDE8F04100F00BB900002DE9F04144
:1057F0000546002700F0C8FA324E306808B9FFF7B6
:1058000047FD706905424ED1C5B3083568070ED013
:1058100005F00700C0F108000544680707D05020D4
:1058200080F31188BFF34F8FBFF36F8FFEE72DB367
:105830007068854237D82348183001460C6801E06B
:1058400020460C466168A94202D221680029F7D19E
:1058500031688C4227D0076821680160606808378A
:10586000411B10290FD96019420708D0502080F33E
:105870001188BFF34F8FBFF36F8FFEE713E04160D6
:105880006560FFF7C5FD61687068401A7060B268B6
:10589000904200D2B060706901430020C4E9000169
:1058A000F068401CF06000F0E5FF780707D050205A
:1058B00080F31188BFF34F8FBFF36F8FFEE7384639
:1058C000BDE8F0815C01002010B5031F4FF080742B
:1058D0001C601B1F21F001011960191F024B0B6096
:1058E000143940380A6010BD21570008D0E9013250
:1058F00001699A60D0E901235A604A68824201D165
:1059000082684A60002202610868401E08600868D8
:1059100070470000044908680A688069D26A09680B
:10592000C2F138028A61704708010020034B03600E
:1059300003F15C000860402010607047B01A00203E
:10594000034B036003F15C00086080201060704727
:105950000C1C002000F052BA00F0A9BA00F10801B6
:105960004FF0FF32C0E90112C16001610021016006
:10597000704700210161704730B50B685A1C02D096
:1059800000F1080202E0026904E02246546825683A
:105990009D42FAD953684B6099608A6051600861F2
:1059A0000168491C016030BD42684A6093688B60A1
:1059B00093685960916008610168491C01607047F3
:1059C000502080F31188BFF34F8FBFF36F8F0A49C8
:1059D0004868401C486001280CD10848006810F055
:1059E000FF0F07D0502080F31188BFF34F8FBFF314
:1059F0006F8FFEE7704700007C01002004ED00E09F
:105A00000849486828B1401E486001D180F31188D8
:105A10007047502080F31188BFF34F8FBFF36F8F13
:105A2000FEE700007C01002070B500282AD0164D4A
:105A3000A0F1080460686969084207D1502080F32A
:105A40001188BFF34F8FBFF36F8FFEE722683AB123
:105A5000502080F31188BFF34F8FBFF36F8FFEE7A5
:105A60008843606000F090F9606869680844686085
:105A70002046FFF7CDFC2869401C2861BDE8704036
:105A800000F0F8BE70BD00005C0100204FF0E02087
:105A900000210161816105494FF47A720968B1FB07
:105AA000F2F1491E416107210161704704010020A4
:105AB00010B5FAF727FC114910280ED300F1E020A9
:105AC00090F8F0030A78904207D2502080F31188B2
:105AD000BFF34F8FBFF36F8FFEE7094800688968F7
