:020000040800F2
:100000004021002061020008AF2A0008972600085E
:10001000AD2A0008C10600080933000800000000EE
:10002000000000000000000000000000C9010008FE
:10003000D7070008000000000D020008852B00080B
:100040007B0200087B0200087B0200087B0200089C
:100050007B0200087B0200087B0200087B0200088C
:100060007B0200087B0200087B0200086907000889
:1000700075070008810700088D0700089907000828
:100080007B0200087B0200087B0200087B0200085C
:100090007B0200087B0200087B0200087B0200084C
:1000A0007B0200087B0200087B0200087B0200083C
:1000B000192C0008252C0008752C00087B0200086C
:1000C0007B0200087B0200087B0200087B0200081C
:1000D0007B0200084D3200087B020008B5320008A0
:1000E0007B0200087B0200087B02000800F002F897
:1000F00000F05AF80AA090E8000C82448344AAF168
:100100000107DA4501D100F04FF8AFF2090EBAE865
:100110000F0013F0010F18BFFB1A43F0010318473B
:1001200024550000445500000A444FF0000C10F81C
:10013000013B13F0070408BF10F8014B1D1108BF65
:1001400010F8015B641E05D010F8016B641E01F805
:10015000016BF9D113F0080F1EBF10F8014BAD1C55
:100160000C1B09D16D1E58BF01F801CBFAD505E073
:1001700014F8016B01F8016B6D1EF9D59142D6D3CD
:10018000704700000023002400250026103A28BFF5
:1001900078C1FBD8520728BF30C148BF0B607047F9
:1001A0001FB51FBD10B510BD00F045F91146FFF792
:1001B000F7FF03F0BAF800F063F903B4FFF7F2FFBA
:1001C00003BC00F06BF90000224B19680868B0E826
:1001D000F00F80F30988BFF36F8F4FF0000080F3BA
:1001E00011884EF00D0E70470000000006480068B0
:1001F000006880F3088862B661B6BFF34F8FBFF323
:100200006F8F00DF00BF00BF08ED00E0EFF3098053
:10021000BFF36F8F0F4B1A6820E9F00F106008B51D
:100220004FF0500080F31188BFF34F8FBFF36F8FF3
:1002300004F056F84FF0000080F31188BDE8084044
:1002400019680868B0E8F00F80F30988BFF36F8F72
:10025000704700BFF8000020EFF3058070470000F2
:100260000948804709480047FEE7FEE7FEE7FEE74A
:10027000FEE7FEE7FEE7FEE7FEE7FEE70448054986
:10028000054A064B70470000172C0008ED000008D7
:10029000401B002040210020401D0020401D002068
:1002A000032A40F2308010F0030C00F0158011F8A2
:1002B000013BBCF1020F624498BF11F801CB00F87A
:1002C000013B38BF11F8013BA2F1040298BF00F8CE
:1002D00001CB38BF00F8013B11F0030300F0798037
:1002E000083AC0F0088051F8043B083A51F804CBB2
:1002F000A0E80810F5E7121D5CBF51F8043B40F878
:10030000043BAFF30080D20724BF11F8013B11F882
:1003100001CB48BF11F8012B24BF00F8013B00F8C6
:1003200001CB48BF00F8012B704702F0FF0343EAFE
:10033000032242EA024200F002B84FF00002042910
:10034000C0F0128010F0030C00F01B80CCF1040C04
:10035000BCF1020F18BF00F8012BA8BF20F8022B38
:10036000A1EB0C0100F00DB85FEAC17C24BF00F8DE
:10037000012B00F8012B48BF00F8012B70474FF00C
:10038000000200B5134694469646203922BFA0E8E5
:100390000C50A0E80C50B1F12001BFF4F7AF0907F1
:1003A00028BFA0E80C5048BF0CC05DF804EB8900E2
:1003B00028BF40F8042B08BF704748BF20F8022B25
:1003C00011F0804F18BF00F8012B7047704770473D
:1003D000704710B5203AC0F00B80B1E81850203AB1
:1003E000A0E81850B1E81850A0E81850BFF4F5AFD5
:1003F0005FEA027C24BFB1E81850A0E8185044BF5F
:1004000018C918C0BDE810405FEA827C24BF51F8CB
:10041000043B40F8043B08BF7047D20728BF31F8BF
:10042000023B48BF11F8012B28BF20F8023B48BF10
:1004300000F8012B7047754600F02CF8AE46050019
:100440006946534620F00700854618B020B5FFF7EF
:1004500015FFBDE820404FF000064FF000074FF0B9
:1004600000084FF0000B21F00701AC46ACE8C009D2
:10047000ACE8C009ACE8C009ACE8C0098D467047DB
:1004800010B50446AFF300802046BDE81040FFF7EA
:1004900094BE000000487047DC1A00200149182073
:1004A000ABBEFEE72600020070470000006804496A
:1004B000884204D103480121006802F097BF7047C9
:1004C000080002400C00002010B5074800F0B8F901
:1004D0000A2000F07FFD02220449034800F074FB6B
:1004E00004490348886210BD78010020C80000203C
:1004F000AD040008A80100202DE9F0411A4C208825
:1005000004F060FE194E314604F070FE6FF00B08E7
:10051000414604F0DEFF164904F034FF154F39461A
:1005200004F064FE616904F061FEE16904F020FDFD
:100530000546E060608804F045FE314604F056FE52
:10054000414604F0C6FF394604F050FE216904F02C
:100550004DFEA16904F00CFDA060284600F048F9AA
:100560000549C862BDE8F081C800002000404E4542
:100570000040CE440000A041BC04002070B50446F9
:1005800000688168C943C90717D1816821F001015A
:10059000816000F027FE05460AE000BF00F022FE61
:1005A000401B022804D920688068C043C00706D0D9
:1005B00020688068C043C007F0D0002070BDA06AEA
:1005C00040F01000A062E06A40F00100E06201200B
:1005D00070BD10B50146406A826A12F0500F05D016
:1005E000006A026BBDE8104008461047816A41F47A
:1005F0000071816201688968C1F3424107290CD109
:10060000017B51B9816A21F480718162816AC904D8
:1006100003D4816A41F00101816200F0FBF910BD51
:1006200010B5406A816A41F040018162C16A41F0BF
:100630000401C16200F0F0F910BD10B5406A00F08D
:10064000EAF910BDF8B500260446009600688168F6
:10065000C943C9072DD0816841F001018160164866
:1006600016490068B0FBF1F000E0401E0090002841
:10067000FBD100F0B7FD054616E000BF00F0B2FD6B
:10068000401B022810D920688068C043C0070BD0E7
:10069000A06A40F01000A062E06A40F00100E06251
:1006A00084F824600120F8BD20688068C043C0073A
:1006B000E4D10020F8BD0000F400002040420F000B
:1006C000FEE7000010B500210C4801F009FD0021F3
:1006D0000A4801F00BFA0421084801F001FD042149
:1006E000064801F003FA05494FF42F7009680864C1
:1006F000BDE810400C21014801F0F2BCEC010020E3
:1007000010B500210A4801F039FD0021084801F028
:1007100039FA0421064801F031FD0421044801F0B2
:1007200031FABDE810400C21014801F027BD00005E
:10073000EC01002070B50B4B0022C2EBC20400217B
:1007400003EB4404455C665CB54205D0521CD2B252
:100750000C2AF2D3002070BD491CC9B20E29F1D376
:10076000012070BD1A000020014800F023BB0000EA
:10077000A8010020014800F01DBB0000DC030020A0
:10078000014800F017BB000020040020014800F0E1
:1007900011BB00009803002010B502F067FDBDE812
:1007A0001040014800F006BB5403002030B590F81B
:1007B00040500124AC40C56B6C60046863604368C2
:1007C000102B036803D099600068C26030BD9A6046
:1007D0000068C16030BD7047704710B502F03CFD45
:1007E00002F072FDBDE81040FFF76EBE72B6FEE784
:1007F0002DE9F0410F4C104E074694F82850306810
:1008000054F8251004F0BEFD0146384604F0B0FB54
:10081000306044F8257014F8281F0A22491CB1FBE7
:10082000F2F302FB13112170BDE8F041034904F01B
:1008300007BC0000BC040020C400002000002041D0
:10084000F8B500250446009590F8240001280BD047
:10085000012084F824002046FFF790FE2046FFF791
:10086000F1FE060002D050E00220F8BDA06A20F49C
:10087000885040F00200A062022000F083FD25496C
:100880000968B1FBF0F0400000E0401E0090002835
:10089000FBD12068816841F00801816000F0A2FC72
:1008A000074608E000F09EFCC01B0A2803D9206818
:1008B0008068000715D4206880680007F2D420689B
:1008C000816841F00401816000F08CFC074612E071
:1008D00000F088FCC01B0A280DD9206880684007FA
:1008E00009D5A06A20F0020040F01000A06284F850
:1008F00024500120F8BD206880684007E8D4A06A31
:1009000020F0020040F00100A06284F8245030463C
:10091000F8BD0000F4000020F8B50024009490F821
:1009200024202546012A12D0012280F824204A687A
:100930001F23072A0DD20668776B521E02EB820234
:1009400093409F430B6893401F43776319E0022055
:10095000F8BD06680D2A0AD2376BD21F02EB82025D
:1009600093409F430B6893401F43376309E0F76A46
:100970000D3A02EB820293409F430B6893401F4362
:10098000F7620A68072306680A2A0AD3F7680A3A50
:1009900002EB420293409F438B6893401F43F760F2
:1009A00008E0376902EB420293409F438B68934013
:1009B0001F4337610A68102A01D0112A20D1124B37
:1009C00002689A4217D193681B0219D4936843F4C2
:1009D000000393600968102912D10C490C4A096878
:1009E000B1FBF2F101EB8101490000E0491E0091E9
:1009F0000029FBD104E0816A41F0200181620124D9
:100A000080F824502046F8BD00240140F400002066
:100A100040420F0070477047704700002DE9F041D9
:100A20004FF0000704003D467ED0A06A002628B99A
:100A3000E66284F82460204600F07EF82046FFF746
:100A40009DFDA16AC90600D420B1A06A40F0100043
:100A5000A06269E0A16A21F4885141F00201A1621B
:100A60006268E169237B0A4347EA43010A43A168BC
:100A70004FF48077B94209D0012907D05FF0000117
:100A800094F814C0BCF1010F02D00AE03946F7E730
:100A9000F3B1A36A43F02003A362E36A43F00103C6
:100AA000E3622368D3F804C02CF4694C4CEA010CCF
:100AB000C3F804C021688B68DFF870C003EA0C0338
:100AC00013438B60A168B9420BD0012909D00CE017
:100AD000DFF85CC0A3690CEB43330B4343F40061C4
:100AE000DFE7218A0D05A5F580152168CB6A23F47F
:100AF00070032B43CB62216889680E4B19409142E9
:100B000008D1E662A16A21F0020141F00101A1626F
:100B1000BDE8F081A06A20F0020040F01000A06261
:100B2000E06A40F00100E0620120F1E7FDF7E1FF3B
:100B300000E0FFFFFE0E1FFF70B586B000260546E1
:100B4000009601960296039600681A4988422FD1B2
:100B50001949886940F400708861886900F4007060
:100B60000490886940F0040088618869694600F053
:100B70000400049042200090032001900F4800F0F0
:100B80003BFA104C0E48C4E900068020C4E902601C
:100B900040002061800060612020A0610002E061CF
:100BA000204600F0B1F908B1FFF720FE2C62656223
:100BB00006B070BD00240140001002400008014052
:100BC00008000240A80100202DE9F04789460446AC
:100BD0003B4900683B4F0E1D9046884201D0B84209
:100BE00007D1306810F4702F03D001252846BDE8E6
:100BF000F08794F8240001280CD0012084F8240008
:100C00002046FFF71FFD05004FF0000004D084F8D8
:100C10002400EBE70220EAE7A16A40F60162914373
:100C200041F48071A1622168B94218D1326812F48E
:100C3000702F14D0A16A41F48011A1623168490576
:100C400005D5A16A21F4005141F48051A162A16A45
:100C5000C9040AD5E16A21F00601E16206E0A26A50
:100C600022F48012A2624968E9E7E06284F8240075
:100C7000216A15488862216A1448C862216A1448AA
:100C8000086321686FF0020008602068816841F401
:100C900080718160216843464A464C31206A00F0E9
:100CA00061F920688168C1F342410729816803D056
:100CB00041F48011816099E741F4A001FAE7000056
:100CC0000024014000280140D30500083B0600082D
:100CD0002106000810B590F821100022022905D045
:100CE0000421816380F82020012010BD01680B6879
:100CF00023F00E030B6001680B6823F001030B6007
:100D000090F84030C46B012101FA03F3636080F86E
:100D1000211080F82020104610BD000010B590F87A
:100D200021100024022903D00421816301243DE025
:100D300001680A6822F00E020A6001680A6822F05F
:100D400001020A601A4A0168914201D1012121E0A1
:100D5000174A1432914201D110211BE0144A283263
:100D6000914201D1891515E0114A3C32914201D1DD
:100D700089140FE00E4A5032914202D14FF4803173
:100D800008E00B4A6432914202D14FF4801101E035
:100D90004FF08071064A083A5160012180F8211015
:100DA000002180F82010416B01B18847204610BD1A
:100DB000080002402DE9F05FC16B0C6801680B6808
:100DC000D0F840C0042202FA0CF2494DDFF824A109
:100DD000494E4A4FDFF828B1DFF828E122422CD0F3
:100DE0005A072AD50A68920603D40A6822F0040238
:100DF0000A600168A94201D1042219E0514501D1DC
:100E0000402215E0B14202D14FF4806210E0B942B5
:100E100002D14FF480420BE0594502D14FF48022B9
:100E200006E0714502D14FF4800201E04FF080628C
:100E30002F4908394A60C16A3BE04FF0020808FABE
:100E40000CF818EA040F4FF000094FF0010235D0FA
:100E50005FEA837832D50B689B0605D40B6823F0D4
:100E60000A030B6080F821200168A94201D1022207
:100E700019E0514501D1202215E0B14202D14FF4D1
:100E8000007210E0B94202D14FF400520BE0594514
:100E900002D14FF4003206E0714502D14FF4001246
:100EA00001E04FF00072124908394A6080F8209042
:100EB000816A00291AD0BDE8F05F0847082505FAC5
:100EC0000CF5254212D01B0710D50B6823F00E033A
:100ED0000B6090F84010C36B02FA01F15960826315
:100EE00080F8212080F82090016BE2E7BDE8F09FB8
:100EF000080002401C000240300002404400024052
:100F0000580002406C00024030B528B308C81349AD
:100F100014221944B1FBF2F18900C16310498163C5
:100F2000022141771A6843F6F0718A43D0E9001430
:100F30002143D0E902452C432143046921434469FC
:100F40002143846921431143196000214163012237
:100F500042770177084630BD012030BDF8FFFDBF64
:100F60000000024070B5044690F8200000250128DA
:100F70000CD0012084F8200094F821600020012E7C
:100F800006D084F820000225284670BD022070BDDE
:100F9000022684F82160A0632068066826F0010616
:100FA00006602046FFF702FCE06A0028206801681E
:100FB00002D041F00E0106E021F00401016020683A
:100FC000016841F00A0101602068016841F00101F7
:100FD0000160D9E770B5044600F004F90546601CCD
:100FE00002D004480078044400F0FCF8401BA04202
:100FF000FAD370BDE80000202DE9F84FDFF8B89172
:101000000024A9F1040B23460F2709F1040AABF1D0
:10101000040EC9E00125A5402A40AA427DD1674EB1
:10102000D1F804C0ACEB0608B44532D014DCBCF1F6
:10103000030F3AD009DCBCF1000F2AD0BCF1010F3C
:101040001CD0BCF1020F31D11DE0BCF1110F17D043
:10105000BCF1120F2AD119E0B8F5881F19D006DCAF
:10106000B8F5803F15D0B8F5801F1FD111E0B8F555
:10107000001F0ED0B8F5041F18D10AE0CB6815E0A8
:10108000CB681B1D12E0CB6808330FE0CB680C3334
:101090000CE08B682BB1012B4FF0080303D04561A6
:1010A00004E0042302E0056100E00023FF2A01D8E8
:1010B000064601E000F104064FEA840501D9A5F1D6
:1010C0002005D6F8008007FA05FC28EA0C0803FA88
:1010D00005F548EA0508C6F800804D68ED0062D5C0
:1010E000374DAE6946F00106AE61AD6924F00306E6
:1010F00005F001050095334D06EB050CDCF80850B2
:10110000A607360F07FA06F825EA0805DFF8B880C3
:10111000404503D14FF0000817E044E0DFF8AC8011
:10112000404502D14FF001080FE0DFF8A4804045B0
:1011300002D14FF0020808E0DFF89880404502D164
:101140004FF0030801E04FF0040808FA06F848EAF7
:101150000508CCF808804D68D9F80060ED024D46CE
:1011600001D5164300E096432E604D68DAF8006022
:10117000AD02554601D5164300E096432E604D68FA
:10118000DBF80060AD035D4601D5164300E09643F1
:101190002E604D68DEF80060ED03754601D51643FC
:1011A00000E096432E60641C0D682A46E5407FF4FB
:1011B00031AFBDE8F88F00000804014000001110B5
:1011C000001002400000014000080140000C0140F6
:1011D00000100140001401400AB101617047090488
:1011E000FBE700000148806870470000E80000202D
:1011F000024881680278114481607047E80000204D
:10120000074810B5016841F010010160032000F0AB
:10121000A7F80F2000F006F800F050F8002010BDED
:101220000020024030B50546204887B0C16941F032
:101230000101C161C06906A900F00100009001A888
:1012400000F0FEF90498B8B100F01AFA400018490D
:101250004FF08042B0FBF1F11648491E0260416038
:1012600040F2E7320021C0E903218160816100F092
:10127000BDFC040003D015E000F002FAE7E70D48DA
:1012800000F020FD04000DD11C2000F03BF8102DD3
:1012900007D2002229461C2000F042F806480560CB
:1012A00000E0012407B0204630BD000000100240DD
:1012B00040420F0064040020EC0000200F4808B5F5
:1012C000816941F001018161816901F001010091B1
:1012D000C16941F08051C161C069002200F08050B5
:1012E00000900F21901E00F01BF80548416821F086
:1012F000E06141F00071416008BD00000010024053
:1013000000000140002809DB00F01F02012191408C
:101310004009800000F1E020C0F800117047000093
:10132000F0B40E4B1B680C46C3F30223C3F1070550
:10133000042D00D90425191D072901D2002300E03E
:10134000DB1E012606FA05F1491E214099409E4008
:10135000761E16403143F0BC01F0D7BF0CED00E023
:10136000064900F0070208684FF6FF03184040EAFC
:101370000220034A10430860704700000CED00E0B3
:101380000000FA0510B501460020234C012922D0A7
:10139000022939D010291DD161682268D20119D5DE
:1013A0001E48C1F38342C903805C0AD561681B4AA9
:1013B000C1F34041921E515C194AB2FBF1F148431E
:1013C00001E0184948436168490203D44000032101
:1013D000B0FBF1F010BD226AC2F30121012903D153
:1013E000920701D5C80310BD022905D1626A920790
:1013F00002D549F6404010BD0329FCD1216889037C
:10140000F9D54FF2244010BD00F04AF96168C1F3EC
:101410008131491C4900DBE700100240E05500081B
:1014200000127A0000093D002DE9F84305460078D6
:10143000354CC00754D0E0690026C00008D4E069EC
:1014400040F08050E061E069012600F0805000909B
:101450002E480168C90512D40168804641F48071A4
:101460000160FFF7BFFE074605E000BFFFF7BAFEC9
:10147000C01B642823D8D8F80000C005F6D5206A20
:1014800010F4407021D0A98801F4407181421CD031
:10149000206A1F49012220F440700A6000220A607D
:1014A0002062C00711D0FFF79DFE074641F2883841
:1014B00008E000BFFFF796FEC11B414502D903209B
:1014C000BDE8F883206A8007F4D5206A696820F4B3
:1014D0004070084320621EB1E06920F08050E06156
:1014E0002878800705D56068A96820F44040084343
:1014F00060602878C00605D56068E96820F480003F
:10150000084360600020DBE70010024000700040EC
:10151000400442422DE9F0470F46050061D0434E9A
:10152000306800F00700B84209D2306820F00700A8
:1015300038433060306800F00700B84251D1286865
:101540003B4C810712D5400703D5606840F4E0604A
:1015500060602878000703D5606840F460506060E0
:101560006068A96820F0F000084360602878C00730
:1015700028D06868012810D02168022810D0890777
:1015800000292EDA616821F0030101436160FFF751
:1015900029FE804641F288390DE021688903EFE792
:1015A0008901EDE7FFF71EFEA0EB0801494502D9CE
:1015B0000320BDE8F0876068696800F00C00B0EBBC
:1015C000810FEFD1306800F00700B8420BD93068C6
:1015D00020F0070038433060306800F00700B84260
:1015E00001D00120E5E72878400705D56068E96863
:1015F00020F4E060084360602878000706D5606842
:10160000296920F4605040EAC100606000F058F899
:101610006168084AC1F30311515CC840064908607B
:1016200006480068FFF7FEFD0020C2E700200240E8
:1016300000100240F0550008F4000020EC000020EB
:101640000F2202600C4A536803F00303436053689F
:1016500003F0F0038360536803F4E063C3605268EF
:101660004FF4E06303EAD20202610448006800F02C
:101670000700086070470000001002400020024090
:101680000448054900684968044AC1F30221515CD5
:10169000C8407047F40000200010024000560008C7
:1016A0000448054900684968044AC1F3C221515CF5
:1016B000C8407047F40000200010024000560008A7
:1016C0000E4A51680E4801F00C03042B11D0082B70
:1016D0000FD10C48C1F38343C903C05C0AD55168DC
:1016E000084AC1F34041921E515C054A5043B0FB89
:1016F000F1F0704704494843704700000010024071
:1017000000127A00CE55000800093D002DE9F84F7F
:10171000040070D02078C04DC00749D06868C0F37D
:101720008100012807D06868C0F38100022809D130
:101730006868C00306D52868800339D5606800282A
:10174000E7D035E06068B0F5803F0BD010B1B0F560
:10175000A02F11D0286820F480302860286820F459
:10176000802002E0286840F480302860606890B1F2
:10177000FFF738FD06460AE0286840F4802028601C
:10178000F0E700BFFFF72EFD801B642873D82868A0
:101790008003F7D50CE0FFF725FD064605E000BF06
:1017A000FFF720FD801B6428F0D828688003F7D459
:1017B00020789A4E80074FF001094FF0000839D584
:1017C000686810F00C0F07D06868C0F38100022829
:1017D00009D16868C00306D42868800714D5206939
:1017E000012808D110E02069B0B1C6F80090FFF7D9
:1017F000F9FC074605E00AE1FFF7F4FCC01B0228EC
:10180000C4D828688007F7D52868616920F0F800F7
:1018100040EAC10028600DE0C6F80080FFF7E2FC56
:10182000074604E0FFF7DEFCC01B022823D8286827
:101830008007F7D4207800072CD57948A169D9B161
:10184000C0F80090FFF7CEFC074604E0FFF7CAFCA3
:10185000C01B02280FD8686A8007F7D571484FF47B
:10186000FA510068B0FBF1F0009000BF0098411EF3
:101870000091FAD20EE080E0C0F80080FFF7B2FCE1
:10188000074604E0FFF7AEFCC01B022875D8686A63
:101890008007F7D42078400760D5E8690027C000AA
:1018A00008D4E86940F08050E861E869012700F059
:1018B000805000905C480168C90513D401688346D4
:1018C00041F480710160FFF78DFC824606E000BFA5
:1018D000FFF788FCA0EB0A0064284ED8DBF8000074
:1018E000C005F5D5E06801280AD008B1052813D055
:1018F000286A20F001002862286A20F0040002E033
:10190000286A40F001002862E06841F2883B98B103
:10191000FFF768FC82460BE0286A40F0040028626A
:10192000EEE700BFFFF75EFCA0EB0A0159455AD86D
:10193000286A8007F6D50CE0FFF754FC824605E0E4
:10194000FFF750FCA0EB0A0159454CD8286A8007E4
:10195000F6D41FB1E86920F08050E861E06988B3EF
:101960006968C1F38101022944D00228C6F8608069
:1019700004D0FFF737FC044638E034E0FFF732FCD0
:10198000074604E0FFF72EFCC01B02282BD828686E
:101990008001F7D4206AB0F5803F05D16868A1685E
:1019A00020F4003008436860D4E9080108436968FE
:1019B00021F4741108436860C6F86090FFF712FCC8
:1019C000044606E025E000BFFFF70CFC001B0228E0
:1019D00009D828688001F7D51BE000BFFFF702FC9B
:1019E000001B022802D90320BDE8F88F2868800177
:1019F000F4D40EE00128F7D06868226A00F4803140
:101A0000914204D1616A00F47010884201D0012033
:101A1000EAE70020E8E70000001002400000424230
:101A200080044242F400002000700040704770477C
:101A300010B590F83C20012A22D0012280F83C20E9
:101A4000CA688C6822F4407222434C6822F4806297
:101A500022430C6822F4006222430C6922F4805273
:101A600022434C6922F400522243C969002322F424
:101A700080420A4301684A6480F83C30002010BD6F
:101A8000022010BD70B590F83C20012A26D0012418
:101A900080F83C40022280F83D2003685A689D6827
:101AA00022F070060A6832435A600D4B02689A426F
:101AB00008D0B2F1804F05D00A4B9A4202D00A4BAF
:101AC0009A4204D1496825F080031943916080F857
:101AD0003D40002180F83C10084670BD022070BDDA
:101AE000002C0140000400400008004010B50446EE
:101AF000022249B104290ED0082913D094F84500D8
:101B0000012816D0012010BD94F842000128F9D117
:101B100084F842200FE094F843000128F2D184F8C1
:101B2000432008E094F844000128EBD184F84420D5
:101B300001E084F845200422206801F0EAF82068DA
:101B4000416C41F4004141640B492068884208D04F
:101B5000B0F1804F05D00949884202D00849884237
:101B600004D1816801F00701062903D0016841F022
:101B700001010160002010BD002C01400004004064
:101B80000008004070B504460D460068002201F0D0
:101B9000C0F82068036A41F211110B4240F244423E
:101BA00006D1036A134203D1436C23F40043436418
:101BB0002068036A0B4206D1016A114203D1016811
:101BC00021F00101016001203DB1042D08D0082D54
:101BD00009D084F84500002070BD84F84200FAE77F
:101BE00084F84300F7E784F84400F4E710B50400F4
:101BF00003D094F83D0010B107E0012010BD002093
:101C000084F83C00204600F01FF8022084F83D00D4
:101C1000211D206801F034F8012084F8460084F882
:101C20003E0084F83F0084F8400084F8410084F8C6
:101C3000420084F8430084F8440084F8450084F8A6
:101C40003D00002010BD000008B51A4A01681A487E
:101C5000914208D1816941F400618161806900F499
:101C60000060009008BD154A91420ED1C16941F053
:101C70000201C161C069002200F00200009005214C
:101C80001D20FFF74DFB1D2010E00D4A9142E9D1C8
:101C9000C16941F00401C161C069002200F0040083
:101CA000009005211E20FFF73BFB1E20BDE80840E9
:101CB000FFF728BB002C0140001002400004004048
:101CC0000008004090F83D10012901D00120704724
:101CD000022180F83D100168CA6842F00102CA6022
:101CE00000680B49884208D0B0F1804F05D00949FF
:101CF000884202D00849884204D1816801F0070176
:101D0000062903D0016841F00101016000207047FD
:101D1000002C0140000400400008004070B504465B
:101D200090F83C000025012817D0012684F83C607B
:101D3000022084F83D002068826822F0770222F4B5
:101D40007F4282600868502838D00DDC20284FD0B0
:101D500005DC90B3102811D14AE0022070BD302874
:101D600046D040280AD13BE060282FD070280DD003
:101D7000B0F5805F03D0B0F5005F12D0012584F884
:101D80003D60002084F83C00284670BDCB68D1E956
:101D90000121206800F0CAFF2068816841F07701C6
:101DA00009E0CB68D1E90121206800F0BFFF20687D
:101DB000816841F480418160E1E719E0CA684968BF
:101DC000206801F067F85021206806E0CA68496879
:101DD000206801F070F86021206800F0B1FFCEE7C4
:101DE000CA684968206801F055F840212068F4E786
:101DF000226801461046F0E770472DE9F04104469D
:101E00000068C66805694FF00007A90713D5B10738
:101E100011D5F91E016101202077206880698007B3
:101E2000204602D0FFF7E8FF04E000F0C3F82046A8
:101E300000F055F92777680716D5700714D5216883
:101E40006FF004000861022020772068806910F498
:101E5000407F204602D0FFF7CFFF04E000F0AAF851
:101E6000204600F03CF92777280715D5300713D511
:101E700021686FF008000861042020772068C0699D
:101E80008007204602D0FFF7B7FF04E000F092F889
:101E9000204600F024F92777E80616D5F00614D579
:101EA00021686FF010000861082020772068C06961
:101EB00010F4407F204602D0FFF79EFF04E000F0C0
:101EC00079F8204600F00BF92777E80708D0F007EB
:101ED00006D021686FF001000861204600F086F905
:101EE000280608D5300606D521686FF08000086105
:101EF0002046FFF79BFD680608D5700606D52168C9
:101F00006FF040000861204600F077F9A8060AD576
:101F1000B00608D521686FF0200008612046BDE8B2
:101F2000F041FFF784BDBDE8F081000030B585B019
:101F300000210091019102910391006819498842A2
:101F40002DD11948816941F008018161816901F051
:101F500008010491816941F00401816180690224D2
:101F600000F0040004904FF4C040CDE9000469463D
:101F70000E480394FFF740F84FF44070CDE9000499
:101F800003200B4D039069462846FFF735F8A00261
:101F9000CDE90004694628460394FFF72DF805B003
:101FA00030BD0000002C014000100240000C014038
:101FB00000080140704770B5044690F83C000026C8
:101FC0000D4601280FD0012084F83C006AB1042A94
:101FD0001DD0082A2FD00C2A3FD00126002084F8DB
:101FE0003C00304670BD022070BD206800F0B0FE9D
:101FF0002068816941F0080181612068816921F0D0
:1020000004018161206881692A69114311E0206817
:1020100000F0C6FE2068816941F40061816120689A
:10202000816921F480618161206881692A6941EABE
:1020300002218161D2E7206800F0DEFE2068C169DC
:1020400041F00801C1612068C16921F00401C1614A
:102050002068C1692A69114311E0206800F0F8FE88
:102060002068C16941F40061C1612068C16921F43F
:102070008061C1612068C1692A6941EA0221C161A8
:10208000ACE710B5040003D094F83D0010B107E0B0
:10209000012010BD002084F83C00204600F01EF80E
:1020A000022084F83D00211D206800F0E9FD012098
:1020B00084F8460084F83E0084F83F0084F840002D
:1020C00084F8410084F8420084F8430084F8440016
:1020D00084F8450084F83D00002010BD704770472B
:1020E00010B50446022249B104290ED0082913D0A4
:1020F00094F84100012816D0012010BD94F83E004C
:102100000128F9D184F83E200FE094F83F0001281F
:10211000F2D184F83F2008E094F840000128EBD188
:1021200084F8402001E084F841200122206800F07A
:10213000E3FD0F492068884203D1426C42F400421B
:1021400042642068884208D0B0F1804F05D0094928
:10215000884202D00849884204D1816801F0070111
:10216000062903D0016841F001010160002010BD83
:10217000002C0140000400400008004030B5044637
:102180000D460068002200F0B7FD174B41F2111117
:1021900020688A10984209D1036A0B4206D1036A6B
:1021A000134203D1436C23F4004343642068036A61
:1021B0000B4206D1016A114203D1016821F00101ED
:1021C000016001203DB1042D08D0082D09D084F80C
:1021D0004100002030BD84F83E00FAE784F83F005B
:1021E000F7E784F84000F4E7002C01400068B0F104
:1021F000804F01D1FEF7FCBF7047704770477047B2
:10220000F8B5016804460868CA684B6910F00F0FFA
:102210004FF0000559D003F0010602F490773743E0
:1022200065D0C10705D0D10503D5616C41F001012E
:102230006164410705D5D90703D0616C41F0020103
:102240006164810705D5D90703D0616C41F00401B1
:102250006164010707D502F02001314303D0616CAE
:1022600041F008016164616C00293AD0800604D510
:10227000900602D5204600F0E4FE20684069616CBB
:10228000C0F38010090700D460B3204600F0A4FE1C
:1022900020684069400621D52068143050E8001FAE
:1022A00021F0400140E80012002AF5D1E06BA8B10E
:1022B0006D494163E06BFEF731FD002811D0E06B02
:1022C000416B01B0BDE8F040084783060FD5930687
:1022D0000DD52046BDE8F84000F0B3BE2046FFF71C
:1022E0008EFFF8BD2046FFF78AFF6564F8BD266BB8
:1022F0002023012E7CD1C6067AD5D60678D508686B
:102300004868009048694FF00206400640D5E16BEE
:10231000086840680004000CE8D0A28D8242E5D92C
:10232000E085886920282DD020680C3050E8001FF7
:1023300021F4807140E80012002AF5D120681430A1
:1023400050E8001F21F0010140E80012002AF5D1F9
:102350002068143050E8001F21F0400140E80012CE
:10236000002AF5D184F84230256320680C3050E80B
:10237000001F21F0100140E80012002AF5D1E06BA7
:10238000FEF7A8FC6663A08DE18D401A81B22AE0B9
:10239000A08DE18D401A81B2E08D0028A6D00029E1
:1023A000A4D022680C3252E8000F20F4907042E86A
:1023B0000007002FF5D12068143050E8002F22F0DC
:1023C000010240E80027002FF5D184F84230256350
:1023D00020680C3050E8002F22F0100240E8002363
:1023E000002BF5D166632046FFF708FFF8BDFFE735
:1023F00005062BD5150629D594F841002128F5D1DD
:10240000A068B0F5805F01D12069B0B1206A411C9D
:102410002162216800784860E08C401E0004000CB6
:10242000E084E3D12068C16821F08001C1602068A8
:10243000C16841F04001C160D8E7206A0088C0F35C
:1024400008004860206A801C2062E5E74006CDD580
:102450005006CBD5CA68204622F04002CA6084F8F4
:10246000413000F017F9C1E7DB2E000870B5040019
:1024700004D094F84100002510B106E0012070BDA1
:1024800084F84050204600F023F8242084F84100CE
:102490002068C16821F40051C160204600F032FE7E
:1024A0002068016921F4904101612068416921F0AF
:1024B0002A0141612068C16841F40051C16065642E
:1024C000202084F8410084F842006563002070BD3C
:1024D0002DE9F04385B000250095019502950395FF
:1024E0000446DFF874C103685C48022103225C4E95
:1024F00080274FF020094FF01008634552D18369BF
:1025000043F480438361836903F4804304938369C4
:1025100043F0080383618069039200F0080004908F
:102520004020CDE9000169463046FEF765FDCDE962
:102530000075694630460295FEF75EFD49484168E0
:1025400041F0E06141F004014160484E4648C6E96F
:102550000005C6E902573561C6E905593046F561FF
:10256000FEF7D2FC08B1FEF741F9E66374623F4E14
:102570003D4844361438C6E9025735617561B56186
:10258000F561C6E900083046FEF7BEFC08B1FEF76B
:102590002DF9A6630022052125207462FEF7C0FEF6
:1025A000252053E0DFF8C8C0634551D1C36943F427
:1025B0008023C361C36903F480230493836943F0D8
:1025C000080383618069039200F0080004904FF4CF
:1025D0008060CDE9000169463046FEF70DFD4FF4FD
:1025E0000060CDE90005694630460295FEF704FD1E
:1025F0001E4E1D4888363C38C6E902573561756164
:10260000B561F561C6E900083046FEF77DFC08B10A
:10261000FEF7ECF8A6637462144E1348CC362838E3
:10262000C6E90005C6E902573561C6E905593046D5
:10263000F561FEF769FC08B1FEF7D8F8E663002201
:10264000052127207462FEF76BFE2720FEF75AFE55
:1026500005B0BDE8F08300000038014000100240E2
:10266000000C0140000001405800024054030020CB
:102670000048004090F84230202B01D002207047E3
:1026800021B11AB10023036300F098BD0120704707
:10269000704770477047FEE73EB50021174800912C
:1026A0000191154A0291026092158260012404731F
:1026B000017502254FF460220561C2614160FEF799
:1026C000ADF908B1FEF792F807200094CDE901407A
:1026D00069460A48FEF720F908B1FEF787F8062098
:1026E000CDE9000569460548FEF716F9002801D036
:1026F000FEF77CF83EBD0000002401407801002078
:10270000194808B5416941F0010141614069002261
:1027100000F00100009005210B20FEF701FE0B20C8
:10272000FEF7F0FD002205210C20FEF7F9FD0C203C
:10273000FEF7E8FD002205210D20FEF7F1FD0D203A
:10274000FEF7E0FD002205210E20FEF7E9FD0E2038
:10275000FEF7D8FD002205210F20FEF7E1FDBDE8C0
:1027600008400F20FEF7CEBD0010024010B50D4A04
:1027700000210D4800F0C4FE0C4C0A4A00212060E4
:1027800024320B4800F0BCFE064A6060483200214B
:10279000084800F0B5FEA06002486C3000F010FE62
:1027A000E06010BD505500087D2B0008000000209F
:1027B000FD2A0008312B00082DE9F04385B00024E4
:1027C00029480094019402940394816941F0200106
:1027D0008161816901F020010491816941F0040166
:1027E0008161816901F004010491816941F008016E
:1027F00081618069DFF8748000F008000490002295
:1028000038214046FEF7E8FCDFF864904FF400778B
:10281000002239464846FEF7DFFC0420CDE90004DB
:10282000694640460294FEF7E7FB38200125022660
:10283000CDE90005CDE9024669464046FEF7DCFBDE
:102840000820CDE90004694648460294FEF7D4FB0F
:1028500000970396CDE9015469464846FEF7CCFB44
:1028600005B0BDE8F0830000001002400008014000
:10287000000C014010B596B000240F9410941194F0
:10288000129413941C2168461494FDF778FD2021BE
:1028900007A8FDF774FD33483149C0E9001440F240
:1028A000CF21C0E9024180210461C0E90541FFF761
:1028B0009DF908B1FDF79AFF4FF480500F900FA9D2
:1028C0002848FFF72BFA08B1FDF790FF2548FFF7DE
:1028D000D8FB08B1FDF78AFF139413A9214814947B
:1028E000FFF7D0F808B1FDF781FF6020009040F2BB
:1028F0006710CDE90104039404940594002269460D
:1029000018480694FFF757FB08B1FDF76FFF042244
:1029100069461448FFF74FFB08B1FDF767FF4FF416
:10292000967001900C2269460E48FFF744FB08B1EF
:10293000FDF75CFF07940E200894CDE909404FF4A1
:102940000050CDE90B4007A906480E94FFF770F838
:1029500008B1FDF74BFF0348FFF7E8FA16B010BDCA
:10296000002C0140EC01002010B586B0002418486E
:102970000094019402940394049414490594016012
:1029800041F61F41C0E9011442F20F71C0E903147E
:1029900080218161FFF72AF908B1FDF727FF4FF485
:1029A0008050009069460A48FFF7B8F908B1FDF772
:1029B0001DFF049404A906480594FFF763F8002856
:1029C00001D0FDF713FF06B010BD00000004004069
:1029D0003402002010B586B00024174800940194FA
:1029E0000294039404941349059401604721C0E9BB
:1029F00001146321C0E9031480218161FFF7F6F817
:102A000008B1FDF7F3FE4FF48050009069460A4884
:102A1000FFF784F908B1FDF7E9FE049404A906481C
:102A20000594FFF72FF8002801D0FDF7DFFE06B070
:102A300010BD0000000800407C0200200C4810B5CA
:102A40000A4901604FF416514160002181600C2257
:102A5000C160C0E904128161C161FFF707FD002870
:102A600003D0BDE81040FDF7C1BE10BD00380140E5
:102A7000C40200200C4810B50A4901604FF4E1314E
:102A80004160002181600C22C160C0E904128161B3
:102A9000C161FFF7EBFC002803D0BDE81040FDF753
:102AA000A5BE10BD004800400C030020FEE7FEE775
:102AB00010B5054C002020700448FDF73BFE207047
:102AC000002800D0012010BD19000020AC04002017
:102AD00010B500224FF400710548FEF77DFB054953
:102AE00000200870BDE810400E210348FDF725BC0A
:102AF000000C014019000020AC040020FDF700FE8E
:102B00000848FFF7DFF80848FFF7DCF8074C012218
:102B100010212046FEF760FBFFF7DAFF012000F0EE
:102B200023FCF4E7340200207C020020000801406E
:102B3000104F114D4FF0FF3801264346022203216A
:102B4000286800F07DFC0446C00705D0FDF7D4FCE2
:102B50000121286800F015FCA00707D5FFF7A8FFA2
:102B600000B13E700221286800F00BFC012000F04B
:102B7000FBFBE2E7180000200C000020012000F021
:102B8000F3FBFBE710B54FF0E020006902F026F8F8
:102B9000012803D0BDE8104001F054BD10BD30B590
:102BA00093B028216846FDF7EAFB14210AA8FDF737
:102BB000E6FB002501200F95109511950104129553
:102BC0008DE8230004904FF4E010CDE908100224B2
:102BD00007946846FEF79AFD08B172B6FEE70AA9A7
:102BE0000F2081E831004FF48060CDE90D0502210E
:102BF0000AA8FEF78FFC08B172B6FEE74FF400405A
:102C000011900F940FA8FEF70FFC002801D072B6A8
:102C1000FEE713B030BD70470148FFF7EEB8000083
:102C20006404002010B51148FFF7E7F81048416828
:102C3000491C4160022901D8026862B100220229C0
:102C400002DB0368012B0CD00A2903DB0168002991
:102C500000D1426010BD01210160BDE81040FDF7C8
:102C600031BD0260BDE81040FDF74ABD34020020CE
:102C7000100000200148FFF7C0B800007C020020CF
:102C8000F0B50268194B1A4C1A4D4FF08047984224
:102C900005D0B84203D0A04201D0A84203D122F00F
:102CA00070064A683243984205D0B84203D0A04229
:102CB00001D0A84203D122F44074CA6822434C696F
:102CC00022F08002224302608A68C2620A6882623D
:102CD000984201D109690163012141610169C90774
:102CE00003D0016921F001010161F0BD002C014018
:102CF000000400400008004010B501F01F0301214E
:102D0000046A99408C430462016A9A40114301624B
:102D100010BD10B501F00F030421046A99408C43E3
:102D20000462016A9A401143016210BD10B58468C3
:102D300042EA032224F47F440A432243826010BD06
:102D4000826822F070020A4342F0070181607047F6
:102D500030B5036A026A22F00102026242688469A5
:102D600024F073050C682C4323F002058B682B4379
:102D70000A4DA8420BD123F00805CB6822F440721B
:102D80002B434D6923F0040315438A692A434260AB
:102D9000846149684163036230BD0000002C01403A
:102DA00030B5026A036A23F0100303624368846942
:102DB0000D6824F4E64444EA05248D6822F02002DC
:102DC00042EA05120B4DA8420ED1CD6822F08002D6
:102DD00042EA05124D6923F4406343EA85038D6995
:102DE00022F0400243EA85034360846149688163BD
:102DF000026230BD002C014030B5036A026A22F441
:102E0000807202624268C46923F4007324F073057F
:102E10000C682C438D6843EA05230C4DA8420ED163
:102E2000CD6823F4006343EA05234D6922F4405240
:102E300042EA05128D6923F4806342EA051242607A
:102E4000C4614968C163036230BD0000002C0140C9
:102E500030B5046A026A22F4805202624268C36991
:102E60000D6823F4E64343EA05238D6824F40054F7
:102E700044EA0534064DA84204D14D6922F480424B
:102E800042EA85124260C36149680164046230BD50
:102E9000002C014010B5036A046A24F001040462A6
:102EA000846924F0F00444EA021423F00A020A437D
:102EB0008461026210BD10B5036A046A24F0100434
:102EC0000462846923F0A00324F4704444EA0232CB
:102ED00043EA01118261016210BD10B5406A002110
:102EE000C185C184FFF78BF910BD70B5446A2068B5
:102EF000406994F84110C0F3C0100025212904D185
:102F000018B1E584204600F08EF82068406994F8F6
:102F10004210C0F38010222904D118B1E585204663
:102F200000F05AF8606C40F0100060642046FFF733
:102F300066F970BD10B50146406A096809684FF02E
:102F4000000289062ED4C28501680C3151E8003F89
:102F500023F4807341E80034002CF5D1016814316A
:102F600051E8003F23F0010341E80034002CF5D183
:102F70000168143151E8003F23F0400341E8003478
:102F8000002CF5D1202180F84210016B012909D1D4
:102F900001680C3151E8003F23F0100341E8003490
:102FA000002CF5D14263016B012902D0FFF770FBC1
:102FB00010BD818DFFF722F910BD10B5406A0121C7
:102FC0004163016B012902D0FFF763FB10BD818DC6
:102FD0004908FFF713F910BD01680C3151E8002FC3
:102FE00022F4907241E80023002BF5D101681431DE
:102FF00051E8002F22F0010241E80023002BF5D117
:10300000016B012909D101680C3151E8002F22F030
:10301000100241E80023002BF5D1202180F8421056
:1030200000210163704701680C3151E8002F22F044
:10303000C00241E80023002BF5D1202180F8411087
:10304000704708B590F84210222901D0022008BD2F
:1030500082684FF480539A4201D1016921B1816A9B
:103060009A421BD04AB10AE00268816A5268C2F3F0
:1030700008020A80816A891C08E0026972B102684C
:10308000526802F07F020A70816A491C8162C18D18
:10309000491E0904090CC18503D01BE0026852686F
:1030A000F1E70168CA6822F02002CA600168CA68B4
:1030B00022F48072CA6001684A6922F001024A6102
:1030C000202180F8421000214163026B012A03D0C5
:1030D000FFF7DEFA002008BD016301680C3151E8FA
:1030E000002F22F0100241E80023002BF5D10168E7
:1030F0000A68D20602D50A6849680091818DFFF7F7
:103100007DF8E7E770B5044600680169E26821F4DC
:103110004051114301612169A06808436169084376
:103120002168CA6841F20C639A430243CA6020686E
:103130004169A26921F44071114341611E4920682F
:10314000884202D1FEF7ACFA01E0FEF799FA00EBF3
:10315000C00101EB0012606864218000B2FBF0F353
:10316000B3FBF1F36FF018067343B2FBF0F5B2FB5B
:10317000F0F605EB8305322303EB0515B5FBF1F5FE
:10318000B6FBF1F605F0F00505EB0615B2FBF0F61F
:10319000B2FBF0F0B0FBF1F06FF01802504306EB19
:1031A000800003EB0010B0FBF1F0216800F00F008D
:1031B0002844886070BD00000038014038B5816245
:1031C00004468285002013466064222284F842204F
:1031D000E56B1B4AAA62E56B1A4AEA62E56B1A4A7A
:1031E0002A63E26B50630A462168E06B091DFDF714
:1031F000B9FE2068016840680090206948B12068E5
:103200000C3050E8001F41F4807140E80012002AA1
:10321000F5D12068143050E8001F41F0010140E86A
:103220000012002AF5D12068143050E8001F41F048
:10323000400140E80012002AF5D1002038BD00000E
:10324000352F0008BB2F0008EB2E00080148FEF7C1
:10325000D7BF0000C40200200E2202490248FFF737
:1032600009BA0000EC040020C40200200D4808B593
:1032700000680168C90613D50168406800900E22F5
:1032800009490A48FDF70CF80E2207490548FFF7DF
:10329000F1F9074802210068BDE8084000F0A6B82F
:1032A00008BD0000C4020020EC040020AC04002093
:1032B0000C00002010B500F011F8BDE810400148E6
:1032C000FEF79EBF0C0300200E2202490248FFF7C2
:1032D000D1B90000FA0400200C030020084882B095
:1032E00000680168C90608D50168406800900E2290
:1032F0000449034802B0FFF7BDB902B070470000AF
:103300000C030020FA040020FEE70907090E00283C
:1033100004DB00F1E02080F80014704700F00F009B
:1033200000F1E02080F8141D7047FDF769FFFFF7FA
:1033300036FCFFF741FAFFF7E3F9FFF79BFAFFF7D7
:103340007DFBFFF797FBFFF7A7F9FFF70DFBFFF7F3
:1033500041FBFDF742FAFDF73FFA00F0A3F8FFF753
:1033600005FA00F0B1F8FEE710B5EFF3058111B1F1
:103370006FF0050403E0002408B100F09DFE204634
:1033800010BD70B50E46050002D0300E002802D0E8
:103390006FF0030412E0EFF30580002828460AD0FE
:1033A00001F01CF804463146284600F0EBFF28B92E
:1033B0006FF0020402E000F0C5FF0446204670BD35
:1033C00010B54FF00001EFF305826AB948B1D0E9BA
:1033D00002202AB1202807D3104600F0E9FF02E0BE
:1033E00010B900F0D7FF0146084610BD38B50C46AD
:1033F00010B1210E002902D06FF0030038BDEFF3A9
:103400000581B1B1002100916A46214601F03AF8E8
:1034100060B1009920460029F0D0084A4FF0805151
:103420001160BFF34F8FBFF36F8F38BD6FF0020095
:1034300038BD214600F0DFFF38BD000004ED00E09C
:10344000F8B51D4616460C4610B1210E002902D0D3
:103450006FF00300F8BDEFF3058111B16FF00500C7
:10346000F8BDF10701D0012300E00023B10701D529
:10347000002200E001222146009501F00BF8F3073D
:103480006FF001016FF0020206D0844306D1F8BD4F
:103490000846F8BD1046F8BD0442FCD1002DF9D015
:1034A000F6E70000EFF3058010B16FF005007047FC
:1034B0000448016811B14FF0FF30704701210160ED
:1034C000002070474801002010B5EFF3058010B1CF
:1034D0006FF0050010BD08480168012902D04FF0C7
:1034E000FF3010BD054A002182F8141D0221016041
:1034F00000F0AAFE002010BD480100200BE000E013
:103500002DE9FF414FEA01034FF00005EFF305817C
:10351000039549BB40B34027182100244AB31668DD
:1035200006B1344696691EB13146761E382E02D257
:103530001679F60703D0002004B0BDE8F081566983
:1035400006B1B708D2F808C0BCF1000F0DD0D5689D
:103550005C2D18D312693AB136B18DE806103A469F
:10356000214601F010FB03900DE0D6685EB91269A8
:103570004AB903AACDE90012BAB2214601F0D6FA3F
:10358000012800D003950398D6E700002DE9F0410B
:10359000134C0F460546E6682068001D00F04AFC03
:1035A000681C07D137B12168BDE8F0410D48091DFD
:1035B00000F09EBC20683544B5424560216805D2C4
:1035C000A06BBDE8F041091D00F07ABC606B091DDD
:1035D00000F076FCA06A854200D2A562BDE8F081C9
:1035E000F8000020F80900202DE9F041054600F020
:1035F0008BFC2D4CA068401CA06020682B4F10B1A4
:10360000606930B32BE02560A068012827D100262F
:1036100006EB860007EB800000F044FC761C382E99
:10362000F6D3234800F03EFC2148143000F03AFC69
:103630001F48283000F036FC1D483C3000F032FCBA
:103640001B48503000F02EFC194860631430A06312
:1036500005E02068E96AC06A884200D82560606A8F
:10366000401C60626864E86A2169884200D9206170
:1036700000EB800007EB8000291D00F039FC00F012
:1036800063FC606900280CD02068E96AC06A88423F
:1036900007D208494FF080500860BFF34F8FBFF347
:1036A0006F8FBDE8F0810000F80000204805002081
:1036B000A809002004ED00E038B500F025FC104C0E
:1036C0002068C8B90F4800F0EDFB0E48143000F038
:1036D000E9FB0C48E060143020610A4B0020F03B0D
:1036E000009003F1500210210A2000F0C1FF206079
:1036F00010B105A100F0AAFCBDE8384000F024BCE0
:1037000034010020FC0A0020546D725100000000BA
:1037100030B4026C0B46002A0BD0C1681144C16062
:103720008468A14201D30168C16030BC1846FCF72F
:10373000B7BD30BC70472DE9F041856B1746044694
:103740000026026C82B1C7B1E068FCF7A9FDE16810
:10375000206C091AE1602268914202D2A168081A1D
:10376000E060022F16D017E02068A8B9A06801F029
:10377000ADFA06460020A0600EE06068FCF790FD00
:10378000216C606808446060A168884204D32068A6
:10379000606001E005B16D1E6D1CA5633046BDE89B
:1037A000F08110B5044690F8590058B101280CD0AA
:1037B00002280FD0502080F31188BFF34F8FBFF342
:1037C0006F8FFEE7206B00F0D3FB2046BDE8104072
:1037D00000F0CEBB10BD000010484FF4406142071E
:1037E00006D0C01D0D4920F00700411AC1F5406107
:1037F0000B4A00230144C2E900030839183A21F0BA
:10380000070111604B600B600B1AC0E90013936055
:103810004FF000405360506170470000DC0E002004
:1038200064010020144E154CA6F29C474FF08058BE
:10383000DFF84C9012E000BF00F066FBF068C5684E
:10384000281D00F0F7FAA068401EA0606068401EC6
:10385000606000F079FB2846FFF7A3FF606800284E
:10386000EAD138680128F9D9C9F80080BFF34F8F31
:10387000BFF36F8FF2E70000E4090020F80000209A
:1038800004ED00E070B51D46049C51B1C4F8002061
:10389000C4E90F010121204600F01EFF84F84C50BE
:1038A00070BD2460F4E700002DE9F05F8846DDE993
:1038B0000B941546834691009A460A9EA522206BDA
:1038C000FCF733FD6FF00301206B01EB8501084429
:1038D00020F00707780707D0502080F31188BFF346
:1038E0004F8FBFF36F8FFEE70025B8F1000F0FD0A9
:1038F0005FF00000221818F8001082F8341018F851
:10390000001011B1401C1028F4D384F8435001E09A
:1039100084F83450382E00D33726E662C4E91365A4
:10392000201D00F0CAFA04F1180000F0C6FA246164
:10393000C6F138006462A061656584F8585052464B
:103940005946384600F064FA2060B9F1000F01D002
:10395000C9F80040BDE8F09F30B5114900E01146BC
:103960000A688242FBD34B685C18844203D14068EA
:1039700018444860084643681C18944209D1084C12
:10398000183C2468A24209D052681A4442600A686E
:1039900012680260814200D0086030BD0460F9E71F
:1039A0006401002070B5002441600B4D006191421C
:1039B00006D8D11A8269914206D2011D286907E012
:1039C0009A4203D2994201D3012403E0011DE86821
:1039D00000F076FA204670BD3401002010B5044690
:1039E00000F092FAA06B28B15FF0000400F0ACFA8E
:1039F000204610BD0124F9E730B589B03C4D6EE09A
:103A00000498002806DADDE90601059A9047049833
:103A1000002864DB069C606910B1201D00F00AFAE2
:103A200003A800F0D7F8024604980A2857D2DFE826
:103A300000F00505052D334A05052D3394F82800BF
:103A400040F0010084F828000599A069059B014415
:103A50002046FFF7A7FF68B3216A2046884794F8FD
:103A6000280040073BD5002000900598A16900235D
:103A700042181946204601F033FAD8B9502080F395
:103A80001188BFF34F8FBFF36F8FFEE714F8280F35
:103A900020F00100207022E094F8280040F001009E
:103AA00084F828000598A06128B1811813462046A3
:103AB000FFF778FF13E0502080F31188BFF34F8F9A
:103AC000BFF36F8FFEE794F82800810703D42046E8
:103AD00000F04EFA03E020F0010084F828000022F4
:103AE00004A9286800F04CFF002889D109B030BD36
:103AF000340100202DE9FC410F46054600F0E8FBAB
:103B000001A800F067F80446019818B101F056F9D1
:103B1000BDE8FC81254EAFB130690068D0B3002705
:103B2000291B3A46306800F0A5FA01F047F9002851
:103B3000EED11F494FF080500860BFF34F8FBFF3A5
:103B40006F8FE5E7A542EBD801F038F9F06827461A
:103B5000C068C468201D00F06DF994F82800410782
:103B600019D5A0692B4641193A462046FFF71AFF9E
:103B7000A8B100200346014600902A46204601F0E5
:103B8000AFF960B9502080F31188BFF34F8FBFF3B6
:103B90006F8FFEE707E020F0010084F82800216A1B
:103BA00020468847B4E70127BAE700003401002027
:103BB00004ED00E00648416B096829B1416BC96812
:103BC000C9684968816270474FF0FF31FAE7000029
:103BD000F800002070B5054601F00EF8064E0446C8
:103BE000B068844203D200F009F8012000E0002010
:103BF00028602046B46070BD34010020F8B5194D2E
:103C000020E0C068C4680668201D00F013F9216A2E
:103C10002046884794F82800400713D5A06930440F
:103C2000B04206D924616060211DE86800F048F9BF
:103C300008E000200346014600903246204601F08D
:103C40004FF938B1E86801680029DAD12969C5E976
:103C50000310F8BD502080F31188BFF34F8FBFF3DE
:103C60006F8FFEE73401002008484068401C4FF089
:103C7000500080F3118804D0BFF34F8FBFF36F8FD4
:103C8000FEE7BFF34F8FBFF36F8FFEE76C0100209D
:103C90000346002012B1994302D070470B42FCD07A
:103CA00001207047074CE068016841B1C0680021FD
:103CB000D0F80000FFF71EFFFFF79EFEF3E701219B
:103CC0000020F7E7340100202DE9F041044600F020
:103CD0001BF994F9455004F1240609E0606A48B1E3
:103CE000304601F033F808B100F014FA6D1E6DB2E1
:103CF000002DF3DC4FF0FF3684F8456000F024F926
:103D000000F002F994F9445004F1100709E0206929
:103D100048B1384601F01AF808B100F0FBF96D1E01
:103D20006DB2002DF3DC84F84460BDE8F04100F092
:103D30000BB900002DE9F0410546002700F0C8FA54
:103D4000324E306808B9FFF747FD706905424ED121
:103D5000C5B3083568070ED005F00700C0F10800AC
:103D60000544680707D0502080F31188BFF34F8FB8
:103D7000BFF36F8FFEE72DB37068854237D82348B5
:103D8000183001460C6801E020460C466168A942E3
:103D900002D221680029F7D131688C4227D0076808
:103DA0002168016060680837411B10290FD960192C
:103DB000420708D0502080F31188BFF34F8FBFF324
:103DC0006F8FFEE713E041606560FFF7C5FD616836
:103DD0007068401A7060B268904200D2B06070693A
:103DE00001430020C4E90001F068401CF06000F0CD
:103DF000E5FF780707D0502080F31188BFF34F8F7D
:103E0000BFF36F8FFEE73846BDE8F0814C0100201C
:103E100010B5031F4FF080741C601B1F21F00101BF
:103E20001960191F024B0B60143940380A6010BD2D
:103E3000693C0008D0E9013201699A60D0E90123A8
:103E40005A604A68824201D182684A600022026157
:103E50000868401E08600868704700000449086848
:103E60000A688069D26A0968C2F138028A617047BB
:103E7000F8000020034B036003F15C000860402061
:103E800010607047240B0020034B036003F15C00BB
:103E90000860802010607047800C002000F052BA4B
:103EA00000F0A9BA00F108014FF0FF32C0E9011299
:103EB000C16001610021016070470021016170470C
:103EC00030B50B685A1C02D000F1080202E002690A
:103ED00004E02246546825689D42FAD953684B6035
:103EE00099608A60516008610168491C016030BDB9
:103EF00042684A6093688B6093685960916008617A
:103F00000168491C01607047502080F31188BFF39D
:103F10004F8FBFF36F8F0A494868401C48600128E3
:103F20000CD10848006810F0FF0F07D0502080F334
:103F30001188BFF34F8FBFF36F8FFEE7704700000C
:103F40006C01002004ED00E00849486828B1401EDB
:103F5000486001D180F311887047502080F31188A8
:103F6000BFF34F8FBFF36F8FFEE700006C0100209F
:103F700070B500282AD0164DA0F108046068696960
:103F8000084207D1502080F31188BFF34F8FBFF351
:103F90006F8FFEE722683AB1502080F31188BFF39B
:103FA0004F8FBFF36F8FFEE78843606000F090F99A
:103FB00060686968084468602046FFF7CDFC28699E
:103FC000401C2861BDE8704000F0F8BE70BD0000E4
:103FD0004C0100204FF0E020002101618161054982
:103FE0004FF47A720968B1FBF2F1491E4161072171
:103FF00001617047F400002010B5FCF72DF911495C
:1040000010280ED300F1E02090F8F0030A789042D7
:1040100007D2502080F31188BFF34F8FBFF36F8F0B
:10402000FEE709480068896800F4E060884207D923
:10403000502080F31188BFF34F8FBFF36F8FFEE7DF
:1040400010BD00006C0100200CED00E010B5084B25
:10405000002200BF53F832401CB1521C082AF9D389
:1040600010BD43F8321003EBC201486010BD0000E0
:104070000805002070B515460E460446FFF744FFBC
:1040800094F944100020491C01D184F8440094F9AB
:104090004510491C01D184F84500FFF755FFA06B7E
:1040A00028B92A46314604F1240000F051F8204690
:1040B000BDE87040FFF708BE10B5020014D00F48ED
:1040C000006B38B1502080F31188BFF34F8FBFF3DE
:1040D0006F8FFEE700F0FCF800211046FFF756FA5C
:1040E00000F06CFE002807D105494FF080500860B1
:1040F000BFF34F8FBFF36F8F10BD0000F80000209B
:1041000004ED00E002490A6A0260C9684160704734
:10411000F800002001490120C8617047F800002024
:1041200010B50C4650B1094909681831FFF7C8FEAF
:104130002046BDE810400121FFF728BA502080F347
:104140001188BFF34F8FBFF36F8FFEE7F800002099
:1041500070B514460D4668B10A4909681831FFF771
:10416000C7FE0CB14FF0FF3521462846BDE8704030
:10417000FFF70CBA502080F31188BFF34F8FBFF3C5
:104180006F8FFEE7F800002010B51446030011D031
:104190001048026BB2B1026841F0004191610168C0
:1041A00018461831FFF7A4FE2046BDE81040012153
:1041B000FFF7ECB9502080F31188BFF34F8FBFF3A6
:1041C0006F8FFEE7502080F31188BFF34F8FBFF34E
:1041D0006F8FFEE7F800002070B5194D2A6BF2B121
:1041E00041F000410160C4680CB3FFF723FE201DBD
:1041F000FFF720FEE06A2969884200D92861114949
:1042000000EB800001EB8000211DFFF771FEE06AEA
:104210002968C96A884201D90120E86170BD50202F
:1042200080F31188BFF34F8FBFF36F8FFEE75020ED
:1042300080F31188BFF34F8FBFF36F8FFEE700004D
:10424000F80000204805002030B587B00024039412
:1042500005AA04A903A80494FFF70CFEDDE90301F5
:104260000094CDE90110002315A11748059A00F02C
:104270008AFC164D0028E8621FD000F001FE0128DC
:1042800009D0401C19D1502080F31188BFF34F8F03
:10429000BFF36F8FFEE7502080F31188BFF34F8F7D
:1042A000BFF36F8F4FF0FF30A86201206861EC60B0
:1042B00007B0BDE8304000F071B907B030BD000074
:1042C00049444C450000000025380008F800002053
:1042D0000248016B491C016370470000F800002090
:1042E000164810B5016B11B10121C16110BD00214B
:1042F000C1610169124A01E0B9B1491E01EB8103B4
:1043000052F82330002BF7D001EB810302EB83023C
:1043100002F1080453685B685360A34201D15B68F3
:104320005360DA680260016110BD502080F311888B
:10433000BFF34F8FBFF36F8FFEE70000F800002040
:104340004805002070B50E46040009D0300E0FD08D
:10435000502080F31188BFF34F8FBFF36F8FFEE7BC
:10436000502080F31188BFF34F8FBFF36F8FFEE7AC
:10437000FFF7CAFD256825EA06002060FFF7E4FD87
:10438000284670BD0A4601460023014800F0DCBD06
:104390009D3E000870B52020FFF7CCFC040005D03E
:1043A0000025201D2560FFF77DFD2577204670BD87
:1043B00038B558B120210446002000912060201D0E
:1043C000FFF770FD01202077204638BD502080F394
:1043D0001188BFF34F8FBFF36F8FFEE75022EFF3CB
:1043E000118182F31188BFF34F8FBFF36F8F006885
:1043F00081F3118870472DE9F041002788460400B9
:104400000AD05FEA18600FD0502080F31188BFF304
:104410004F8FBFF36F8FFEE7502080F31188BFF3FB
:104420004F8FBFF36F8FFEE7261D04F10C05FFF7DA
:104430004FFF2168F06841EA0801216017E0D0E9E8
:10444000001601F07F425301236821F07F4102D41E
:104450000B4203D10AE031EA030307D1D20100D5B0
:104460000F43216841F00071FFF7B6FE3046A842C5
:10447000E5D12068B843206000F0A0FC2068BDE8CA
:10448000F081000013460A460146014800F05CBD79
:10449000A13E00082DE9F0479A46DDF820909046AD
:1044A0000D4604004FF0000709D0280E0FD0502011
:1044B00080F31188BFF34F8FBFF36F8FFEE750205B
:1044C00080F31188BFF34F8FBFF36F8FFEE71DB1ED
:1044D00000F084FB40B112E0502080F31188BFF35C
:1044E0004F8FBFF36F8FFEE7B9F1000F07D0502059
:1044F00080F31188BFF34F8FBFF36F8FFEE7FFF795
:10450000E7FE2668524629463046FFF7C1FB30B128
:10451000B8F1000F1AD02068A843206016E0B9F166
:10452000000F13D0B8F1000F01D04FF08077BAF12F
:10453000000F01D047F0806745EA07014A46201D79
:10454000FFF722FE00F03AFC18B10AE000F036FC5A
:104550001FE011494FF080500860BFF34F8FBFF349
:104560006F8FFFF77BFC0646800110D4FFF7CCFC71
:104570002668524629463046FFF78AFB28B1B8F133
:10458000000F02D02068A8432060FFF7DDFC26F072
:104590007F463046BDE8F08704ED00E01CB52649B3
:1045A00008780190FF20087008788DF800009DF8C9
:1045B00000009DF8002000F0F000904207D050204D
:1045C00080F31188BFF34F8FBFF36F8FFEE79DF825
:1045D00000001A4C00F0500020700720A06005E099
:1045E0009DF8002052008DF80020401E9DF800200C
:1045F0001206F5D4A060032807D0502080F311885C
:10460000BFF34F8FBFF36F8FFEE74FF44070A06092
:10461000019808700A48016841F47001016001685E
:1046200041F070410160FFF7D5FC00206060FBF7AE
:10463000DDFD00201CBD000000E400E06C01002056
:1046400020ED00E010B5502080F31188BFF34F8FAC
:10465000BFF36F8F00F0D6FA18B104494FF08050C5
:104660000860002080F3118810BD000004ED00E018
:1046700038B5049D18B153B1CAB181B120E05020C2
:1046800080F31188BFF34F8FBFF36F8FFEE7502089
:1046900080F31188BFF34F8FBFF36F8FFEE7502079
:1046A00080F31188BFF34F8FBFF36F8FFEE739B1EF
:1046B000502080F31188BFF34F8FBFF36F8FFEE759
:1046C00050241C46012384F846302B460094FFF703
:1046D000D9F8204638BD000070B50D46040025D03D
:1046E000FFF712FCD4E90F20216802FB0011A16042
:1046F0000021A163216861600A46D4E90F01401ED0
:1047000000FB0121E16021464FF0FF3001F8440F2A
:10471000487004F110008DB1FFF7C4FB04F12400D0
:10472000FFF7C0FBFFF710FC012070BD502080F3A5
:104730001188BFF34F8FBFF36F8FFEE72169002908
:10474000F0D000F003FB0028ECD004494FF080507B
:104750000860BFF34F8FBFF36F8FE3E704ED00E016
:104760002DE9FF4782B01D468A464FF0000804003D
:1047700003D0BAF1000F08D011E0502080F3118867
:10478000BFF34F8FBFF36F8FFEE7206C38B150201F
:1047900080F31188BFF34F8FBFF36F8FFEE7022DB9
:1047A0000AD1E06B012807D0502080F31188BFF3B5
:1047B0004F8FBFF36F8FFEE700F010FA3F4F4FF0BF
:1047C00000094FF0805648B9049838B1502080F362
:1047D0001188BFF34F8FBFF36F8FFEE7FFF794FB96
:1047E000A06BE16B884207D3022D05D00498D0B1AD
:1047F000B8F1000F1AD01EE02A4651462046FEF7B7
:104800009AFF616A19B104F1240000F09FFA20B107
:104810003E60BFF34F8FBFF36F8FFFF795FB012013
:1048200006B0BDE8F087FFF78FFB22E06846FFF790
:1048300069FC4FF00108FFF787FBFFF749FDFFF721
:1048400063FB94F94400401C01D184F8449094F92E
:104850004500401C01D184F84590FFF775FB04A981
:10486000684600F029F930B12046FFF72DFA00F034
:10487000A5FA0020D4E7FFF747FBA06BE16B884265
:1048800013D1FFF761FB04F110000499FFF748FC16
:104890002046FFF719FA00F091FA00289ED13E60F9
:1048A000BFF34F8FBFF36F8F98E7FFF74DFB2046A5
:1048B000FFF70AFA00F082FA90E7000004ED00E04A
:1048C0002DE9F0471F4690468946040003D0B9F110
:1048D000000F08D011E0502080F31188BFF34F8FF4
:1048E000BFF36F8FFEE7206C38B1502080F3118842
:1048F000BFF34F8FBFF36F8FFEE7022F0AD1E06B3C
:10490000012807D0502080F31188BFF34F8FBFF3E9
:104910006F8FFEE7FFF770FB5020EFF3118680F3F7
:104920001188BFF34F8FBFF36F8FA06BE16B88428D
:1049300006D3022F04D0002086F31188BDE8F0874B
:1049400094F94550A06B3A4649462046FEF7F3FEDF
:10495000681C04D06D1C84F845500120ECE7606AA7
:104960000028FAD004F1240000F0F0F90028F4D077
:10497000B8F1000FF1D00121C8F80010EDE70000F8
:104980002DE9F747002683B08A46040003D0BAF128
:10499000000F08D011E0502080F31188BFF34F8F33
:1049A000BFF36F8FFEE7206C38B1502080F3118881
:1049B000BFF34F8FBFF36F8FFEE700F00FF9DFF803
:1049C000F4804FF000094FF0805748B9059838B18E
:1049D000502080F31188BFF34F8FBFF36F8FFEE736
:1049E000FFF792FAA56BC5B151462046FEF790FE3F
:1049F0006D1EA563206950B104F1100000F0A6F906
:104A000028B1C8F80070BFF34F8FBFF36F8FFFF767
:104A10009BFA012006B0BDE8F087059808B11EB1E9
:104A200006E0FFF791FA27E06846FFF76BFB0126E7
:104A3000FFF78AFAFFF74CFCFFF766FA94F9440097
:104A4000401C01D184F8449094F94500401C01D1E8
:104A500084F84590FFF778FA05A9684600F02CF82D
:104A6000002820460AD0FFF72FF900F0A7F92046CA
:104A7000FEF7B4FF0028B3D00020CBE7FEF7AEFF6F
:104A800090B104F124000599FFF74AFB2046FFF797
:104A90001BF900F093F90028A2D1C8F80070BFF309
:104AA0004F8FBFF36F8F9BE72046FFF70DF900F0A4
:104AB00085F995E704ED00E02DE9F0410C4605008D
:104AC00011D0C4B1FFF720FA174BDA686E6820687E
:104AD000911B471C17D02F681B6A9F4219D0964222
:104AE00017D8012410E0502080F31188BFF34F8FB6
:104AF000BFF36F8FFEE7502080F31188BFF34F8F15
:104B0000BFF36F8FFEE70024FFF71EFA2046BDE8D3
:104B1000F081884205D9401A20602846FFF7F2FA52
:104B2000F1E700202060DCE7F80000202DE9FF5FBE
:104B30008346DDE90E87994616468A469000FFF7C0
:104B4000F9F805001CD05C20FFF7F4F8040014D03D
:104B50000020256384F85900CDE90240CDE90087A3
:104B60004B46324651465846FEF79EFE2046FEF71B
:104B70003BFD012004B0BDE8F09F2846FFF7F8F99F
:104B80004FF0FF30F6E7F0B585B0DDE90B640A9D24
:104B9000A6B1DCB15C2700972663022684F8596031
:104BA000002604AFCDE90246CDE90057FEF77CFEB2
:104BB0002046FEF719FD049805B0F0BD502080F3A3
:104BC0001188BFF34F8FBFF36F8FFEE7502080F344
:104BD0001188BFF34F8FBFF36F8FFEE70548416920
:104BE00019B1006B18B100207047012070470220F6
:104BF00070470000F80000200148C06870470000BE
:104C0000F80000202DE9F0412E4C0027206B28B140
:104C1000A069401CA0613846BDE8F081E668761CBA
:104C2000E66013D1606B006838B1502080F31188C2
:104C3000BFF34F8FBFF36F8FFEE7606BA16B6163B4
:104C4000A063206A401C2062FEF7B4FFA06ADFF870
:104C50007880864209D3606B0068A0B1606BC06841
:104C6000C5686868864211D2A0622068C06A00EBFD
:104C7000800158F82100012800D90127E0690028A7
:104C8000C9D00127C7E74FF0FF30EDE7281DFFF738
:104C9000D1F8A86A18B105F11800FFF7CBF8E86A57
:104CA0002169884200D9206100EB800108EB810076
:104CB000291DFFF71DF9E86A2168C96A8842CAD32D
:104CC0000127C8E7F80000204805002070B504005F
:104CD0004FF0000133D01B4D2868844207D050208C
:104CE00080F31188BFF34F8FBFF36F8FFEE7206D06
:104CF00038B1401E2065E36CE26A9A421FD040B191
:104D00001DE0502080F31188BFF34F8FBFF36F8FEA
:104D1000FEE7201DFFF78EF8E06CE062C0F138007E
:104D2000A061E06A2969884200D92861064900EB40
:104D3000800001EB8000211DFFF7DAF80121084611
:104D400070BD0000F80000204805002070B5C06864
:104D5000C46854B104F118000646FFF76BF8144D0F
:104D6000286B50B13146134815E0502080F311886C
:104D7000BFF34F8FBFF36F8FFEE7201DFFF75AF889
:104D8000E06A2969884200D928610B4900EB80005C
:104D900001EB8000211DFFF7ABF8E06A2968C96AC2
:104DA000884202D90120E86170BD002070BD00007A
:104DB000F8000020D0090020480500202DE9F04728
:104DC0002C4D00242746286B38B1FFF79DF8286B3F
:104DD000401E2863286B40B146E0502080F31188C4
:104DE000BFF34F8FBFF36F8FFEE7A968224E0120FC
:104DF000D1B3A6F5916980463068E0B1F068C46827
:104E000004F11800FFF716F8201DFFF713F8E06A09
:104E10002969884200D9286100EB800109EB8100F3
:104E2000211DFFF765F8E06A2968C96A8842E3D363
:104E3000C5F81C80E0E70CB1FEF7BCFEAC694CB1D4
:104E40004FEA0806FFF7DEFE00B1EE61641EF9D1FD
:104E50000020A861E86938B10849012738070860CF
:104E6000BFF34F8FBFF36F8FFFF76EF83846BDE883
:104E7000F0870000F8000020D009002004ED00E0D9
:104E800010B586B0FEF718FC114C2068B8B10020B0
:104E90000390049005AA04A903A8FEF7F5FFDDE935
:104EA000032102208DE8070000230AA10B48059A80
:104EB000FFF769FE606010B106B0012010BD502000
:104EC00080F31188BFF34F8FBFF36F8FFEE70000B1
:104ED00034010020546D722053766300A53C000815
:104EE0002DE9FF411E46134602000A9D4FF00000C7
:104EF00016D0144C2768002F0FD0CDE90013029272
:104F0000062917DAFFF76AFE02284FF000030FD0D8
:104F1000002269462068FFF723FC04B0BDE8F08159
:104F2000502080F31188BFF34F8FBFF36F8FFEE7E0
:104F30002A46EEE70023324669463846FFF7C0FCB2
:104F4000EBE70000340100201FB51C466FF00103A1
:104F5000CDE90030CDE9021204480023224669461B
:104F60000068FFF7ADFC04B010BD00003401002064
:104F700090EA010F48BF81F0004100F10A82421A15
:104F80003CBF801A89184FEAD0524FF07F4C1CEA80
:104F9000410FA2EBD15318BF9CEA026F00F03B8097
:104FA0004FF0004C4CEA00204CEA012121FA03FCAE
:104FB00010EB0C0C1ED202F1FF325FEA1C2040EB1A
:104FC000C25038BF70471CF07F0F4FEA400C18BF2B
:104FD000BCF17F4F38BF7047C3F12003994008BF31
:104FE00020F00100BCF17F4F38BF7047A0F1C040F6
:104FF00000F0C3B94FEA3C00000A40EBC25028BFA2
:105000001CF0FF0F4FEA400CE6D018BFBCF17F4FF9
:1050100038BF7047EAE79CEA026F05D010EA5C0FE0
:1050200008BF00F00040704710B500F060F900BF05
:1050300064FBBE3E014800F01ABA00BF0000C07F0A
:105040004FF47F0C1CEAD0121EBF1CEAD11392EA67
:105050000C0F93EA0C0F00F0858090EA010F48BF17
:1050600042F4807240F4000C41F400002CF07F41C7
:1050700020F07F4000B58142A2EB03020FF2081C32
:10508000ACEB504EC0F100009EF800E04FEA4E0E2F
:1050900000FB0EFC38BF49004FEA2C1C02F5FA0257
:1050A0000CFB0EF34FEACE1E4FEA112C4FEAC12142
:1050B0000EEB635E42EB22420EFB0CFC4FEA1C53EC
:1050C00000FB03114FEA112C4FEA01310EFB0CFCDF
:1050D0004FEADC4C00FB0C11C14228BF09184CEB15
:1050E00003335DF804EB10EB410143EBC250B2F522
:1050F0007C0F38BF704729D512F0F00F1CBF00F1AC
:10510000C04000F00040704700818283848586871C
:1051100088898B8C8D8E8F919293959697999A9C76
:105120009D9FA0A2A3A5A7A8AAACAEB0B2B3B5B7E5
:10513000B9BCBEC0C2C5C7C9CCCED1D4D7D9DCDFBB
:10514000E2E6E9ECF0F3F7FAFE0000004FEA400C6B
:105150000CF1807CBCF17E4F28BF7047B0F1C0409D
:1051600000F00BB990EA010F0CEAD11348BF42F4EA
:105170008072624538BF634507D213F47F0F16D0A3
:1051800080EA010000F00040704710B500F0AFF871
:10519000097EFC3E00F005B880EA010000F0004006
:1051A000704780EA010000F0004000F0E6B812F419
:1051B0007F0F04BF0248704780EA010000F0DDB8AD
:1051C0000000C07FB0FA80F310FA03F2C3F19D0330
:1051D0000AD0D90501EB1220530638BF704700F101
:1051E000010008BF20F00100704700004FF47F0C61
:1051F0001CEAD0121EBF1CEAD11392EA0C0F93EAEC
:105200000C0F00F0478090EA010F48BF42F4807213
:105210004FF0004C4CEA00204CEA012102EB030263
:10522000A0FB0113A2F50002002918BF43F00103FF
:105230005B0028BF4FEA330342EB22425FEA132CA4
:105240004CEBC2502EBFBCEB436FB2F57C0F7047E6
:105250004FEA036CBCF1004F08BF20F00100B2F52B
:105260007C0F38BF70470BD582F0FF0212F5803FEC
:10527000C8BF704700F1C040D8BF00F00040704781
:1052800000F5000C5FEA4C0C48BF7047B0F1C0401D
:1052900000F073B890EA010F0CEAD11348BF42F452
:1052A0008072624538BF634504D280EA010000F095
:1052B0000040704710B500F01AF800BF8900013EA9
:1052C00000F007B800F009B85FEA410C5FEA1C6C17
:1052D00008D080EA010000F050B85FEA400C5FEAB5
:1052E0001C6CF6D14FF00040A0F5800070470EF125
:1052F000020E2EF0030E5EF8044B244204D44FEA53
:105300004102B2F17F4F11D84FEA4003B3F17F4F12
:105310000CD80ED14FEAD07CB2F17F4F0CEB4C0C85
:105320000CF1020C08BF4CEBD17C04E04FF0080CF0
:1053300001E04FEAD17C0CEB4C0324FA03F404F0B7
:105340000704B4F1040C06D20EEB840CBDE8104047
:105350004CF0010C6047DFE80CF0070802024FF048
:105360000040A0F5800010BD0846420018BFD2F1F1
:10537000807288BF00F0004010BDFF2141EAD0508C
:10538000C005704790EA010F48BF81F000413FF52A
:10539000F6AD421A04D882F00042A0EB020011449C
:1053A0004FEAD0524FF07F4C1CEA410FA2EBD15391
:1053B00018BF9CEA026F4AD04FF0004C4CEA002024
:1053C0004CEA012121FA03FCB0EB0C0C0FD412F0D3
:1053D000FE0F36D05FEA4C001DD5001240EBC250E4
:1053E00038BF70471CF03F0F18BF70470BE0A2F1A9
:1053F00001025FEA1C2040EBC25038BF70471CF02E
:105400007F0F18BF7047C3F12003994014BF401E9F
:1054100020F00100704780084FEA122308BF704750
:10542000B0FA80FCA2EB0C02CCF1280C60FA0CF074
:1054300093EA122F04BF00EBC25070474FEAC370CB
:105440007047130A5FEADC1008BF7047F6E79CEA72
:10545000026F04D010EA5C0F08BF0020704710B53F
:10546000FFF745FF40DFF63E81F0004070470CF04B
:105470000F03092B08BF082000F051800A2B0BD026
:10548000082B18BF704708BF1CF0400F0AD04FF020
:1054900000004FF0000170471CF0400F18BF4FF0A4
:1054A000004070471CF0100F08D020F0704300F04F
:1054B0007F4242EAD3014FEA4370704700F06040F8
:1054C00021F07F4242EA000201F07F4040EA727020
:1054D00070474FF0FF0212EAD0521CBF92F0FF0358
:1054E0008B42C2BFD14200EBC1507047002A0AD0A4
:1054F000002B0BD0002900F00040A4BF40F0FE407C
:1055000040F40000704700F00040704743024FF045
:105510000B0C18BF4CF0806C7FF48CAD70471CF402
:10552000801F11D01CF4E02F03D06FEACC3149006A
:1055300070474FF04050EFF3008222F0704242EA91
:10554000000282F3008870474FF0000070470000AF
:1055500024560008000000000000000000000000C9
:105560000000000000010000080000000000000032
:1055700000000000085600080000000000000000C5
:1055800000000000000000000004000020000000F7
:105590000000000000000000145600080000000099
:1055A00000000000000000000000000000020000F9
:1055B0002800000000000000000000003056000835
:1055C00000000000000000000000000001020203D3
:1055D0000405060708090A0B0C0D0E0F1010010236
:1055E00002030405060708090A0B0C0D0E0F101024
:1055F0000000000000000000010203040607080983
:105600000000000001020304636F6E74726F6C543B
:1056100061736B006461746150726F63657373547E
:1056200061736B0064656661756C745461736B00C3
:10563000784461746150726F636573734576656E0B
:10564000740000006456000800000020780100008B
:1056500028010008E456000878010020C81F000057
:1056600084010008011A480F0230383030324130CE
:105670003346384439030E680839443337453843D4
:105680000E7F4538303743450E6E42433130420E6F
:105690005F4630384235410E78084131363939415C
:1056A000442A6E30343738360E6F3846464335322A
:1056B0000E8F353532313535706D443632340E7ECD
:1056C00042393936307000081846453541383503BF
:1056D0004B803F0461320182100379127A1AAA01C9
:0456E0004100000085
:04000005080000ED02
:00000001FF
